{
	"contract/votig.sol": {
		"Voting": {
			"abi": [
				{
					"inputs": [
						{
							"internalType": "string",
							"name": "_name",
							"type": "string"
						},
						{
							"internalType": "string",
							"name": "_description",
							"type": "string"
						},
						{
							"internalType": "uint256",
							"name": "_duration",
							"type": "uint256"
						}
					],
					"name": "addProposal",
					"outputs": [],
					"stateMutability": "nonpayable",
					"type": "function"
				},
				{
					"inputs": [
						{
							"internalType": "uint256",
							"name": "",
							"type": "uint256"
						}
					],
					"name": "proposals",
					"outputs": [
						{
							"internalType": "string",
							"name": "name",
							"type": "string"
						},
						{
							"internalType": "string",
							"name": "description",
							"type": "string"
						},
						{
							"internalType": "address",
							"name": "creator",
							"type": "address"
						},
						{
							"internalType": "uint256",
							"name": "createTime",
							"type": "uint256"
						},
						{
							"internalType": "uint256",
							"name": "endTime",
							"type": "uint256"
						},
						{
							"internalType": "uint256",
							"name": "yesVotes",
							"type": "uint256"
						},
						{
							"internalType": "uint256",
							"name": "noVotes",
							"type": "uint256"
						}
					],
					"stateMutability": "view",
					"type": "function"
				},
				{
					"inputs": [
						{
							"internalType": "uint256",
							"name": "index",
							"type": "uint256"
						},
						{
							"internalType": "bool",
							"name": "_voteYes",
							"type": "bool"
						}
					],
					"name": "vote",
					"outputs": [],
					"stateMutability": "nonpayable",
					"type": "function"
				}
			],
			"devdoc": {
				"kind": "dev",
				"methods": {},
				"version": 1
			},
			"evm": {
				"assembly": "    /* \"contract/votig.sol\":421:4417  contract Voting {... */\n  mstore(0x40, 0x80)\n  callvalue\n  dup1\n  iszero\n  tag_1\n  jumpi\n  0x00\n  dup1\n  revert\ntag_1:\n  pop\n  dataSize(sub_0)\n  dup1\n  dataOffset(sub_0)\n  0x00\n  codecopy\n  0x00\n  return\nstop\n\nsub_0: assembly {\n        /* \"contract/votig.sol\":421:4417  contract Voting {... */\n      mstore(0x40, 0x80)\n      callvalue\n      dup1\n      iszero\n      tag_1\n      jumpi\n      0x00\n      dup1\n      revert\n    tag_1:\n      pop\n      jumpi(tag_2, lt(calldatasize, 0x04))\n      shr(0xe0, calldataload(0x00))\n      dup1\n      0x013cf08b\n      eq\n      tag_3\n      jumpi\n      dup1\n      0x211602af\n      eq\n      tag_4\n      jumpi\n      dup1\n      0xc9d27afe\n      eq\n      tag_5\n      jumpi\n    tag_2:\n      0x00\n      dup1\n      revert\n        /* \"contract/votig.sol\":1355:1382  Proposal[] public proposals */\n    tag_3:\n      tag_6\n      0x04\n      dup1\n      calldatasize\n      sub\n      dup2\n      add\n      swap1\n      tag_7\n      swap2\n      swap1\n      tag_8\n      jump\t// in\n    tag_7:\n      tag_9\n      jump\t// in\n    tag_6:\n      mload(0x40)\n      tag_10\n      swap8\n      swap7\n      swap6\n      swap5\n      swap4\n      swap3\n      swap2\n      swap1\n      tag_11\n      jump\t// in\n    tag_10:\n      mload(0x40)\n      dup1\n      swap2\n      sub\n      swap1\n      return\n        /* \"contract/votig.sol\":1501:2519  function addProposal(string memory _name, string memory _description, uint _duration) public {... */\n    tag_4:\n      tag_12\n      0x04\n      dup1\n      calldatasize\n      sub\n      dup2\n      add\n      swap1\n      tag_13\n      swap2\n      swap1\n      tag_14\n      jump\t// in\n    tag_13:\n      tag_15\n      jump\t// in\n    tag_12:\n      stop\n        /* \"contract/votig.sol\":2636:3753  function vote(uint index, bool _voteYes) public {... */\n    tag_5:\n      tag_16\n      0x04\n      dup1\n      calldatasize\n      sub\n      dup2\n      add\n      swap1\n      tag_17\n      swap2\n      swap1\n      tag_18\n      jump\t// in\n    tag_17:\n      tag_19\n      jump\t// in\n    tag_16:\n      stop\n        /* \"contract/votig.sol\":1355:1382  Proposal[] public proposals */\n    tag_9:\n      0x00\n      dup2\n      dup2\n      sload\n      dup2\n      lt\n      tag_20\n      jumpi\n      0x00\n      dup1\n      revert\n    tag_20:\n      swap1\n      0x00\n      mstore\n      keccak256(0x00, 0x20)\n      swap1\n      0x08\n      mul\n      add\n      0x00\n      swap2\n      pop\n      swap1\n      pop\n      dup1\n      0x00\n      add\n      dup1\n      sload\n      tag_22\n      swap1\n      tag_23\n      jump\t// in\n    tag_22:\n      dup1\n      0x1f\n      add\n      0x20\n      dup1\n      swap2\n      div\n      mul\n      0x20\n      add\n      mload(0x40)\n      swap1\n      dup2\n      add\n      0x40\n      mstore\n      dup1\n      swap3\n      swap2\n      swap1\n      dup2\n      dup2\n      mstore\n      0x20\n      add\n      dup3\n      dup1\n      sload\n      tag_24\n      swap1\n      tag_23\n      jump\t// in\n    tag_24:\n      dup1\n      iszero\n      tag_25\n      jumpi\n      dup1\n      0x1f\n      lt\n      tag_26\n      jumpi\n      0x0100\n      dup1\n      dup4\n      sload\n      div\n      mul\n      dup4\n      mstore\n      swap2\n      0x20\n      add\n      swap2\n      jump(tag_25)\n    tag_26:\n      dup3\n      add\n      swap2\n      swap1\n      0x00\n      mstore\n      keccak256(0x00, 0x20)\n      swap1\n    tag_27:\n      dup2\n      sload\n      dup2\n      mstore\n      swap1\n      0x01\n      add\n      swap1\n      0x20\n      add\n      dup1\n      dup4\n      gt\n      tag_27\n      jumpi\n      dup3\n      swap1\n      sub\n      0x1f\n      and\n      dup3\n      add\n      swap2\n    tag_25:\n      pop\n      pop\n      pop\n      pop\n      pop\n      swap1\n      dup1\n      0x01\n      add\n      dup1\n      sload\n      tag_28\n      swap1\n      tag_23\n      jump\t// in\n    tag_28:\n      dup1\n      0x1f\n      add\n      0x20\n      dup1\n      swap2\n      div\n      mul\n      0x20\n      add\n      mload(0x40)\n      swap1\n      dup2\n      add\n      0x40\n      mstore\n      dup1\n      swap3\n      swap2\n      swap1\n      dup2\n      dup2\n      mstore\n      0x20\n      add\n      dup3\n      dup1\n      sload\n      tag_29\n      swap1\n      tag_23\n      jump\t// in\n    tag_29:\n      dup1\n      iszero\n      tag_30\n      jumpi\n      dup1\n      0x1f\n      lt\n      tag_31\n      jumpi\n      0x0100\n      dup1\n      dup4\n      sload\n      div\n      mul\n      dup4\n      mstore\n      swap2\n      0x20\n      add\n      swap2\n      jump(tag_30)\n    tag_31:\n      dup3\n      add\n      swap2\n      swap1\n      0x00\n      mstore\n      keccak256(0x00, 0x20)\n      swap1\n    tag_32:\n      dup2\n      sload\n      dup2\n      mstore\n      swap1\n      0x01\n      add\n      swap1\n      0x20\n      add\n      dup1\n      dup4\n      gt\n      tag_32\n      jumpi\n      dup3\n      swap1\n      sub\n      0x1f\n      and\n      dup3\n      add\n      swap2\n    tag_30:\n      pop\n      pop\n      pop\n      pop\n      pop\n      swap1\n      dup1\n      0x02\n      add\n      0x00\n      swap1\n      sload\n      swap1\n      0x0100\n      exp\n      swap1\n      div\n      0xffffffffffffffffffffffffffffffffffffffff\n      and\n      swap1\n      dup1\n      0x03\n      add\n      sload\n      swap1\n      dup1\n      0x04\n      add\n      sload\n      swap1\n      dup1\n      0x05\n      add\n      sload\n      swap1\n      dup1\n      0x06\n      add\n      sload\n      swap1\n      pop\n      dup8\n      jump\t// out\n        /* \"contract/votig.sol\":1501:2519  function addProposal(string memory _name, string memory _description, uint _duration) public {... */\n    tag_15:\n        /* \"contract/votig.sol\":1705:1730  Proposal storage proposal */\n      0x00\n        /* \"contract/votig.sol\":1733:1742  proposals */\n      dup1\n        /* \"contract/votig.sol\":1733:1749  proposals.push() */\n      0x01\n      dup2\n      0x01\n      dup2\n      sload\n      add\n      dup1\n      dup3\n      sstore\n      dup1\n      swap2\n      pop\n      pop\n      sub\n      swap1\n      0x00\n      mstore\n      keccak256(0x00, 0x20)\n      swap1\n      0x08\n      mul\n      add\n        /* \"contract/votig.sol\":1705:1749  Proposal storage proposal = proposals.push() */\n      swap1\n      pop\n        /* \"contract/votig.sol\":1776:1781  _name */\n      dup4\n        /* \"contract/votig.sol\":1760:1768  proposal */\n      dup2\n        /* \"contract/votig.sol\":1760:1773  proposal.name */\n      0x00\n      add\n        /* \"contract/votig.sol\":1760:1781  proposal.name = _name */\n      swap1\n      dup2\n      tag_35\n      swap2\n      swap1\n      tag_36\n      jump\t// in\n    tag_35:\n      pop\n        /* \"contract/votig.sol\":1853:1865  _description */\n      dup3\n        /* \"contract/votig.sol\":1830:1838  proposal */\n      dup2\n        /* \"contract/votig.sol\":1830:1850  proposal.description */\n      0x01\n      add\n        /* \"contract/votig.sol\":1830:1865  proposal.description = _description */\n      swap1\n      dup2\n      tag_37\n      swap2\n      swap1\n      tag_36\n      jump\t// in\n    tag_37:\n      pop\n        /* \"contract/votig.sol\":1941:1951  msg.sender */\n      caller\n        /* \"contract/votig.sol\":1922:1930  proposal */\n      dup2\n        /* \"contract/votig.sol\":1922:1938  proposal.creator */\n      0x02\n      add\n      0x00\n        /* \"contract/votig.sol\":1922:1951  proposal.creator = msg.sender */\n      0x0100\n      exp\n      dup2\n      sload\n      dup2\n      0xffffffffffffffffffffffffffffffffffffffff\n      mul\n      not\n      and\n      swap1\n      dup4\n      0xffffffffffffffffffffffffffffffffffffffff\n      and\n      mul\n      or\n      swap1\n      sstore\n      pop\n        /* \"contract/votig.sol\":2045:2060  block.timestamp */\n      timestamp\n        /* \"contract/votig.sol\":2023:2031  proposal */\n      dup2\n        /* \"contract/votig.sol\":2023:2042  proposal.createTime */\n      0x03\n      add\n        /* \"contract/votig.sol\":2023:2060  proposal.createTime = block.timestamp */\n      dup2\n      swap1\n      sstore\n      pop\n        /* \"contract/votig.sol\":2192:2201  1 minutes */\n      0x3c\n        /* \"contract/votig.sol\":2180:2189  _duration */\n      dup3\n        /* \"contract/votig.sol\":2180:2201  _duration * 1 minutes */\n      tag_38\n      swap2\n      swap1\n      tag_39\n      jump\t// in\n    tag_38:\n        /* \"contract/votig.sol\":2161:2176  block.timestamp */\n      timestamp\n        /* \"contract/votig.sol\":2161:2202  block.timestamp + (_duration * 1 minutes) */\n      tag_40\n      swap2\n      swap1\n      tag_41\n      jump\t// in\n    tag_40:\n        /* \"contract/votig.sol\":2142:2150  proposal */\n      dup2\n        /* \"contract/votig.sol\":2142:2158  proposal.endTime */\n      0x04\n      add\n        /* \"contract/votig.sol\":2142:2202  proposal.endTime = block.timestamp + (_duration * 1 minutes) */\n      dup2\n      swap1\n      sstore\n      pop\n        /* \"contract/votig.sol\":2339:2340  0 */\n      0x00\n        /* \"contract/votig.sol\":2319:2327  proposal */\n      dup2\n        /* \"contract/votig.sol\":2319:2336  proposal.yesVotes */\n      0x05\n      add\n        /* \"contract/votig.sol\":2319:2340  proposal.yesVotes = 0 */\n      dup2\n      swap1\n      sstore\n      pop\n        /* \"contract/votig.sol\":2440:2441  0 */\n      0x00\n        /* \"contract/votig.sol\":2421:2429  proposal */\n      dup2\n        /* \"contract/votig.sol\":2421:2437  proposal.noVotes */\n      0x06\n      add\n        /* \"contract/votig.sol\":2421:2441  proposal.noVotes = 0 */\n      dup2\n      swap1\n      sstore\n      pop\n        /* \"contract/votig.sol\":1594:2519  {... */\n      pop\n        /* \"contract/votig.sol\":1501:2519  function addProposal(string memory _name, string memory _description, uint _duration) public {... */\n      pop\n      pop\n      pop\n      jump\t// out\n        /* \"contract/votig.sol\":2636:3753  function vote(uint index, bool _voteYes) public {... */\n    tag_19:\n        /* \"contract/votig.sol\":2711:2720  proposals */\n      0x00\n        /* \"contract/votig.sol\":2711:2727  proposals.length */\n      dup1\n      sload\n      swap1\n      pop\n        /* \"contract/votig.sol\":2703:2708  index */\n      dup3\n        /* \"contract/votig.sol\":2703:2727  index < proposals.length */\n      lt\n        /* \"contract/votig.sol\":2695:2745  require(index < proposals.length, \"not found....\") */\n      tag_43\n      jumpi\n      mload(0x40)\n      0x08c379a000000000000000000000000000000000000000000000000000000000\n      dup2\n      mstore\n      0x04\n      add\n      tag_44\n      swap1\n      tag_45\n      jump\t// in\n    tag_44:\n      mload(0x40)\n      dup1\n      swap2\n      sub\n      swap1\n      revert\n    tag_43:\n        /* \"contract/votig.sol\":2855:2880  Proposal storage proposal */\n      0x00\n        /* \"contract/votig.sol\":2883:2892  proposals */\n      dup1\n        /* \"contract/votig.sol\":2893:2898  index */\n      dup4\n        /* \"contract/votig.sol\":2883:2899  proposals[index] */\n      dup2\n      sload\n      dup2\n      lt\n      tag_46\n      jumpi\n      tag_47\n      tag_48\n      jump\t// in\n    tag_47:\n    tag_46:\n      swap1\n      0x00\n      mstore\n      keccak256(0x00, 0x20)\n      swap1\n      0x08\n      mul\n      add\n        /* \"contract/votig.sol\":2855:2899  Proposal storage proposal = proposals[index] */\n      swap1\n      pop\n        /* \"contract/votig.sol\":2973:2981  proposal */\n      dup1\n        /* \"contract/votig.sol\":2973:2991  proposal.voteCheck */\n      0x07\n      add\n        /* \"contract/votig.sol\":2973:3003  proposal.voteCheck[msg.sender] */\n      0x00\n        /* \"contract/votig.sol\":2992:3002  msg.sender */\n      caller\n        /* \"contract/votig.sol\":2973:3003  proposal.voteCheck[msg.sender] */\n      0xffffffffffffffffffffffffffffffffffffffff\n      and\n      0xffffffffffffffffffffffffffffffffffffffff\n      and\n      dup2\n      mstore\n      0x20\n      add\n      swap1\n      dup2\n      mstore\n      0x20\n      add\n      0x00\n      keccak256\n      0x00\n      swap1\n      sload\n      swap1\n      0x0100\n      exp\n      swap1\n      div\n      0xff\n      and\n        /* \"contract/votig.sol\":2972:3003  !proposal.voteCheck[msg.sender] */\n      iszero\n        /* \"contract/votig.sol\":2964:3035  require(!proposal.voteCheck[msg.sender], \"already voted this proposal\") */\n      tag_50\n      jumpi\n      mload(0x40)\n      0x08c379a000000000000000000000000000000000000000000000000000000000\n      dup2\n      mstore\n      0x04\n      add\n      tag_51\n      swap1\n      tag_52\n      jump\t// in\n    tag_51:\n      mload(0x40)\n      dup1\n      swap2\n      sub\n      swap1\n      revert\n    tag_50:\n        /* \"contract/votig.sol\":3178:3186  proposal */\n      dup1\n        /* \"contract/votig.sol\":3178:3194  proposal.endTime */\n      0x04\n      add\n      sload\n        /* \"contract/votig.sol\":3160:3175  block.timestamp */\n      timestamp\n        /* \"contract/votig.sol\":3160:3194  block.timestamp < proposal.endTime */\n      lt\n        /* \"contract/votig.sol\":3152:3208  require(block.timestamp < proposal.endTime, \"timed out\") */\n      tag_53\n      jumpi\n      mload(0x40)\n      0x08c379a000000000000000000000000000000000000000000000000000000000\n      dup2\n      mstore\n      0x04\n      add\n      tag_54\n      swap1\n      tag_55\n      jump\t// in\n    tag_54:\n      mload(0x40)\n      dup1\n      swap2\n      sub\n      swap1\n      revert\n    tag_53:\n        /* \"contract/votig.sol\":3385:3393  _voteYes */\n      dup2\n        /* \"contract/votig.sol\":3381:3600  if (_voteYes) {... */\n      iszero\n      tag_56\n      jumpi\n        /* \"contract/votig.sol\":3410:3418  proposal */\n      dup1\n        /* \"contract/votig.sol\":3410:3427  proposal.yesVotes */\n      0x05\n      add\n      0x00\n        /* \"contract/votig.sol\":3410:3429  proposal.yesVotes++ */\n      dup2\n      sload\n      dup1\n      swap3\n      swap2\n      swap1\n      tag_57\n      swap1\n      tag_58\n      jump\t// in\n    tag_57:\n      swap2\n      swap1\n      pop\n      sstore\n      pop\n        /* \"contract/votig.sol\":3381:3600  if (_voteYes) {... */\n      jump(tag_59)\n    tag_56:\n        /* \"contract/votig.sol\":3516:3524  proposal */\n      dup1\n        /* \"contract/votig.sol\":3516:3532  proposal.noVotes */\n      0x06\n      add\n      0x00\n        /* \"contract/votig.sol\":3516:3534  proposal.noVotes++ */\n      dup2\n      sload\n      dup1\n      swap3\n      swap2\n      swap1\n      tag_60\n      swap1\n      tag_58\n      jump\t// in\n    tag_60:\n      swap2\n      swap1\n      pop\n      sstore\n      pop\n        /* \"contract/votig.sol\":3381:3600  if (_voteYes) {... */\n    tag_59:\n        /* \"contract/votig.sol\":3645:3649  true */\n      0x01\n        /* \"contract/votig.sol\":3612:3620  proposal */\n      dup2\n        /* \"contract/votig.sol\":3612:3630  proposal.voteCheck */\n      0x07\n      add\n        /* \"contract/votig.sol\":3612:3642  proposal.voteCheck[msg.sender] */\n      0x00\n        /* \"contract/votig.sol\":3631:3641  msg.sender */\n      caller\n        /* \"contract/votig.sol\":3612:3642  proposal.voteCheck[msg.sender] */\n      0xffffffffffffffffffffffffffffffffffffffff\n      and\n      0xffffffffffffffffffffffffffffffffffffffff\n      and\n      dup2\n      mstore\n      0x20\n      add\n      swap1\n      dup2\n      mstore\n      0x20\n      add\n      0x00\n      keccak256\n      0x00\n        /* \"contract/votig.sol\":3612:3649  proposal.voteCheck[msg.sender] = true */\n      0x0100\n      exp\n      dup2\n      sload\n      dup2\n      0xff\n      mul\n      not\n      and\n      swap1\n      dup4\n      iszero\n      iszero\n      mul\n      or\n      swap1\n      sstore\n      pop\n        /* \"contract/votig.sol\":2684:3753  {... */\n      pop\n        /* \"contract/votig.sol\":2636:3753  function vote(uint index, bool _voteYes) public {... */\n      pop\n      pop\n      jump\t// out\n        /* \"#utility.yul\":7:82   */\n    tag_61:\n        /* \"#utility.yul\":40:46   */\n      0x00\n        /* \"#utility.yul\":73:75   */\n      0x40\n        /* \"#utility.yul\":67:76   */\n      mload\n        /* \"#utility.yul\":57:76   */\n      swap1\n      pop\n        /* \"#utility.yul\":7:82   */\n      swap1\n      jump\t// out\n        /* \"#utility.yul\":88:205   */\n    tag_62:\n        /* \"#utility.yul\":197:198   */\n      0x00\n        /* \"#utility.yul\":194:195   */\n      dup1\n        /* \"#utility.yul\":187:199   */\n      revert\n        /* \"#utility.yul\":211:328   */\n    tag_63:\n        /* \"#utility.yul\":320:321   */\n      0x00\n        /* \"#utility.yul\":317:318   */\n      dup1\n        /* \"#utility.yul\":310:322   */\n      revert\n        /* \"#utility.yul\":334:411   */\n    tag_64:\n        /* \"#utility.yul\":371:378   */\n      0x00\n        /* \"#utility.yul\":400:405   */\n      dup2\n        /* \"#utility.yul\":389:405   */\n      swap1\n      pop\n        /* \"#utility.yul\":334:411   */\n      swap2\n      swap1\n      pop\n      jump\t// out\n        /* \"#utility.yul\":417:539   */\n    tag_65:\n        /* \"#utility.yul\":490:514   */\n      tag_117\n        /* \"#utility.yul\":508:513   */\n      dup2\n        /* \"#utility.yul\":490:514   */\n      tag_64\n      jump\t// in\n    tag_117:\n        /* \"#utility.yul\":483:488   */\n      dup2\n        /* \"#utility.yul\":480:515   */\n      eq\n        /* \"#utility.yul\":470:533   */\n      tag_118\n      jumpi\n        /* \"#utility.yul\":529:530   */\n      0x00\n        /* \"#utility.yul\":526:527   */\n      dup1\n        /* \"#utility.yul\":519:531   */\n      revert\n        /* \"#utility.yul\":470:533   */\n    tag_118:\n        /* \"#utility.yul\":417:539   */\n      pop\n      jump\t// out\n        /* \"#utility.yul\":545:684   */\n    tag_66:\n        /* \"#utility.yul\":591:596   */\n      0x00\n        /* \"#utility.yul\":629:635   */\n      dup2\n        /* \"#utility.yul\":616:636   */\n      calldataload\n        /* \"#utility.yul\":607:636   */\n      swap1\n      pop\n        /* \"#utility.yul\":645:678   */\n      tag_120\n        /* \"#utility.yul\":672:677   */\n      dup2\n        /* \"#utility.yul\":645:678   */\n      tag_65\n      jump\t// in\n    tag_120:\n        /* \"#utility.yul\":545:684   */\n      swap3\n      swap2\n      pop\n      pop\n      jump\t// out\n        /* \"#utility.yul\":690:1019   */\n    tag_8:\n        /* \"#utility.yul\":749:755   */\n      0x00\n        /* \"#utility.yul\":798:800   */\n      0x20\n        /* \"#utility.yul\":786:795   */\n      dup3\n        /* \"#utility.yul\":777:784   */\n      dup5\n        /* \"#utility.yul\":773:796   */\n      sub\n        /* \"#utility.yul\":769:801   */\n      slt\n        /* \"#utility.yul\":766:885   */\n      iszero\n      tag_122\n      jumpi\n        /* \"#utility.yul\":804:883   */\n      tag_123\n      tag_62\n      jump\t// in\n    tag_123:\n        /* \"#utility.yul\":766:885   */\n    tag_122:\n        /* \"#utility.yul\":924:925   */\n      0x00\n        /* \"#utility.yul\":949:1002   */\n      tag_124\n        /* \"#utility.yul\":994:1001   */\n      dup5\n        /* \"#utility.yul\":985:991   */\n      dup3\n        /* \"#utility.yul\":974:983   */\n      dup6\n        /* \"#utility.yul\":970:992   */\n      add\n        /* \"#utility.yul\":949:1002   */\n      tag_66\n      jump\t// in\n    tag_124:\n        /* \"#utility.yul\":939:1002   */\n      swap2\n      pop\n        /* \"#utility.yul\":895:1012   */\n      pop\n        /* \"#utility.yul\":690:1019   */\n      swap3\n      swap2\n      pop\n      pop\n      jump\t// out\n        /* \"#utility.yul\":1025:1124   */\n    tag_67:\n        /* \"#utility.yul\":1077:1083   */\n      0x00\n        /* \"#utility.yul\":1111:1116   */\n      dup2\n        /* \"#utility.yul\":1105:1117   */\n      mload\n        /* \"#utility.yul\":1095:1117   */\n      swap1\n      pop\n        /* \"#utility.yul\":1025:1124   */\n      swap2\n      swap1\n      pop\n      jump\t// out\n        /* \"#utility.yul\":1130:1299   */\n    tag_68:\n        /* \"#utility.yul\":1214:1225   */\n      0x00\n        /* \"#utility.yul\":1248:1254   */\n      dup3\n        /* \"#utility.yul\":1243:1246   */\n      dup3\n        /* \"#utility.yul\":1236:1255   */\n      mstore\n        /* \"#utility.yul\":1288:1292   */\n      0x20\n        /* \"#utility.yul\":1283:1286   */\n      dup3\n        /* \"#utility.yul\":1279:1293   */\n      add\n        /* \"#utility.yul\":1264:1293   */\n      swap1\n      pop\n        /* \"#utility.yul\":1130:1299   */\n      swap3\n      swap2\n      pop\n      pop\n      jump\t// out\n        /* \"#utility.yul\":1305:1551   */\n    tag_69:\n        /* \"#utility.yul\":1386:1387   */\n      0x00\n        /* \"#utility.yul\":1396:1509   */\n    tag_128:\n        /* \"#utility.yul\":1410:1416   */\n      dup4\n        /* \"#utility.yul\":1407:1408   */\n      dup2\n        /* \"#utility.yul\":1404:1417   */\n      lt\n        /* \"#utility.yul\":1396:1509   */\n      iszero\n      tag_130\n      jumpi\n        /* \"#utility.yul\":1495:1496   */\n      dup1\n        /* \"#utility.yul\":1490:1493   */\n      dup3\n        /* \"#utility.yul\":1486:1497   */\n      add\n        /* \"#utility.yul\":1480:1498   */\n      mload\n        /* \"#utility.yul\":1476:1477   */\n      dup2\n        /* \"#utility.yul\":1471:1474   */\n      dup5\n        /* \"#utility.yul\":1467:1478   */\n      add\n        /* \"#utility.yul\":1460:1499   */\n      mstore\n        /* \"#utility.yul\":1432:1434   */\n      0x20\n        /* \"#utility.yul\":1429:1430   */\n      dup2\n        /* \"#utility.yul\":1425:1435   */\n      add\n        /* \"#utility.yul\":1420:1435   */\n      swap1\n      pop\n        /* \"#utility.yul\":1396:1509   */\n      jump(tag_128)\n    tag_130:\n        /* \"#utility.yul\":1543:1544   */\n      0x00\n        /* \"#utility.yul\":1534:1540   */\n      dup5\n        /* \"#utility.yul\":1529:1532   */\n      dup5\n        /* \"#utility.yul\":1525:1541   */\n      add\n        /* \"#utility.yul\":1518:1545   */\n      mstore\n        /* \"#utility.yul\":1367:1551   */\n      pop\n        /* \"#utility.yul\":1305:1551   */\n      pop\n      pop\n      pop\n      jump\t// out\n        /* \"#utility.yul\":1557:1659   */\n    tag_70:\n        /* \"#utility.yul\":1598:1604   */\n      0x00\n        /* \"#utility.yul\":1649:1651   */\n      0x1f\n        /* \"#utility.yul\":1645:1652   */\n      not\n        /* \"#utility.yul\":1640:1642   */\n      0x1f\n        /* \"#utility.yul\":1633:1638   */\n      dup4\n        /* \"#utility.yul\":1629:1643   */\n      add\n        /* \"#utility.yul\":1625:1653   */\n      and\n        /* \"#utility.yul\":1615:1653   */\n      swap1\n      pop\n        /* \"#utility.yul\":1557:1659   */\n      swap2\n      swap1\n      pop\n      jump\t// out\n        /* \"#utility.yul\":1665:2042   */\n    tag_71:\n        /* \"#utility.yul\":1753:1756   */\n      0x00\n        /* \"#utility.yul\":1781:1820   */\n      tag_133\n        /* \"#utility.yul\":1814:1819   */\n      dup3\n        /* \"#utility.yul\":1781:1820   */\n      tag_67\n      jump\t// in\n    tag_133:\n        /* \"#utility.yul\":1836:1907   */\n      tag_134\n        /* \"#utility.yul\":1900:1906   */\n      dup2\n        /* \"#utility.yul\":1895:1898   */\n      dup6\n        /* \"#utility.yul\":1836:1907   */\n      tag_68\n      jump\t// in\n    tag_134:\n        /* \"#utility.yul\":1829:1907   */\n      swap4\n      pop\n        /* \"#utility.yul\":1916:1981   */\n      tag_135\n        /* \"#utility.yul\":1974:1980   */\n      dup2\n        /* \"#utility.yul\":1969:1972   */\n      dup6\n        /* \"#utility.yul\":1962:1966   */\n      0x20\n        /* \"#utility.yul\":1955:1960   */\n      dup7\n        /* \"#utility.yul\":1951:1967   */\n      add\n        /* \"#utility.yul\":1916:1981   */\n      tag_69\n      jump\t// in\n    tag_135:\n        /* \"#utility.yul\":2006:2035   */\n      tag_136\n        /* \"#utility.yul\":2028:2034   */\n      dup2\n        /* \"#utility.yul\":2006:2035   */\n      tag_70\n      jump\t// in\n    tag_136:\n        /* \"#utility.yul\":2001:2004   */\n      dup5\n        /* \"#utility.yul\":1997:2036   */\n      add\n        /* \"#utility.yul\":1990:2036   */\n      swap2\n      pop\n        /* \"#utility.yul\":1757:2042   */\n      pop\n        /* \"#utility.yul\":1665:2042   */\n      swap3\n      swap2\n      pop\n      pop\n      jump\t// out\n        /* \"#utility.yul\":2048:2174   */\n    tag_72:\n        /* \"#utility.yul\":2085:2092   */\n      0x00\n        /* \"#utility.yul\":2125:2167   */\n      0xffffffffffffffffffffffffffffffffffffffff\n        /* \"#utility.yul\":2118:2123   */\n      dup3\n        /* \"#utility.yul\":2114:2168   */\n      and\n        /* \"#utility.yul\":2103:2168   */\n      swap1\n      pop\n        /* \"#utility.yul\":2048:2174   */\n      swap2\n      swap1\n      pop\n      jump\t// out\n        /* \"#utility.yul\":2180:2276   */\n    tag_73:\n        /* \"#utility.yul\":2217:2224   */\n      0x00\n        /* \"#utility.yul\":2246:2270   */\n      tag_139\n        /* \"#utility.yul\":2264:2269   */\n      dup3\n        /* \"#utility.yul\":2246:2270   */\n      tag_72\n      jump\t// in\n    tag_139:\n        /* \"#utility.yul\":2235:2270   */\n      swap1\n      pop\n        /* \"#utility.yul\":2180:2276   */\n      swap2\n      swap1\n      pop\n      jump\t// out\n        /* \"#utility.yul\":2282:2400   */\n    tag_74:\n        /* \"#utility.yul\":2369:2393   */\n      tag_141\n        /* \"#utility.yul\":2387:2392   */\n      dup2\n        /* \"#utility.yul\":2369:2393   */\n      tag_73\n      jump\t// in\n    tag_141:\n        /* \"#utility.yul\":2364:2367   */\n      dup3\n        /* \"#utility.yul\":2357:2394   */\n      mstore\n        /* \"#utility.yul\":2282:2400   */\n      pop\n      pop\n      jump\t// out\n        /* \"#utility.yul\":2406:2524   */\n    tag_75:\n        /* \"#utility.yul\":2493:2517   */\n      tag_143\n        /* \"#utility.yul\":2511:2516   */\n      dup2\n        /* \"#utility.yul\":2493:2517   */\n      tag_64\n      jump\t// in\n    tag_143:\n        /* \"#utility.yul\":2488:2491   */\n      dup3\n        /* \"#utility.yul\":2481:2518   */\n      mstore\n        /* \"#utility.yul\":2406:2524   */\n      pop\n      pop\n      jump\t// out\n        /* \"#utility.yul\":2530:3598   */\n    tag_11:\n        /* \"#utility.yul\":2831:2835   */\n      0x00\n        /* \"#utility.yul\":2869:2872   */\n      0xe0\n        /* \"#utility.yul\":2858:2867   */\n      dup3\n        /* \"#utility.yul\":2854:2873   */\n      add\n        /* \"#utility.yul\":2846:2873   */\n      swap1\n      pop\n        /* \"#utility.yul\":2919:2928   */\n      dup2\n        /* \"#utility.yul\":2913:2917   */\n      dup2\n        /* \"#utility.yul\":2909:2929   */\n      sub\n        /* \"#utility.yul\":2905:2906   */\n      0x00\n        /* \"#utility.yul\":2894:2903   */\n      dup4\n        /* \"#utility.yul\":2890:2907   */\n      add\n        /* \"#utility.yul\":2883:2930   */\n      mstore\n        /* \"#utility.yul\":2947:3025   */\n      tag_145\n        /* \"#utility.yul\":3020:3024   */\n      dup2\n        /* \"#utility.yul\":3011:3017   */\n      dup11\n        /* \"#utility.yul\":2947:3025   */\n      tag_71\n      jump\t// in\n    tag_145:\n        /* \"#utility.yul\":2939:3025   */\n      swap1\n      pop\n        /* \"#utility.yul\":3072:3081   */\n      dup2\n        /* \"#utility.yul\":3066:3070   */\n      dup2\n        /* \"#utility.yul\":3062:3082   */\n      sub\n        /* \"#utility.yul\":3057:3059   */\n      0x20\n        /* \"#utility.yul\":3046:3055   */\n      dup4\n        /* \"#utility.yul\":3042:3060   */\n      add\n        /* \"#utility.yul\":3035:3083   */\n      mstore\n        /* \"#utility.yul\":3100:3178   */\n      tag_146\n        /* \"#utility.yul\":3173:3177   */\n      dup2\n        /* \"#utility.yul\":3164:3170   */\n      dup10\n        /* \"#utility.yul\":3100:3178   */\n      tag_71\n      jump\t// in\n    tag_146:\n        /* \"#utility.yul\":3092:3178   */\n      swap1\n      pop\n        /* \"#utility.yul\":3188:3260   */\n      tag_147\n        /* \"#utility.yul\":3256:3258   */\n      0x40\n        /* \"#utility.yul\":3245:3254   */\n      dup4\n        /* \"#utility.yul\":3241:3259   */\n      add\n        /* \"#utility.yul\":3232:3238   */\n      dup9\n        /* \"#utility.yul\":3188:3260   */\n      tag_74\n      jump\t// in\n    tag_147:\n        /* \"#utility.yul\":3270:3342   */\n      tag_148\n        /* \"#utility.yul\":3338:3340   */\n      0x60\n        /* \"#utility.yul\":3327:3336   */\n      dup4\n        /* \"#utility.yul\":3323:3341   */\n      add\n        /* \"#utility.yul\":3314:3320   */\n      dup8\n        /* \"#utility.yul\":3270:3342   */\n      tag_75\n      jump\t// in\n    tag_148:\n        /* \"#utility.yul\":3352:3425   */\n      tag_149\n        /* \"#utility.yul\":3420:3423   */\n      0x80\n        /* \"#utility.yul\":3409:3418   */\n      dup4\n        /* \"#utility.yul\":3405:3424   */\n      add\n        /* \"#utility.yul\":3396:3402   */\n      dup7\n        /* \"#utility.yul\":3352:3425   */\n      tag_75\n      jump\t// in\n    tag_149:\n        /* \"#utility.yul\":3435:3508   */\n      tag_150\n        /* \"#utility.yul\":3503:3506   */\n      0xa0\n        /* \"#utility.yul\":3492:3501   */\n      dup4\n        /* \"#utility.yul\":3488:3507   */\n      add\n        /* \"#utility.yul\":3479:3485   */\n      dup6\n        /* \"#utility.yul\":3435:3508   */\n      tag_75\n      jump\t// in\n    tag_150:\n        /* \"#utility.yul\":3518:3591   */\n      tag_151\n        /* \"#utility.yul\":3586:3589   */\n      0xc0\n        /* \"#utility.yul\":3575:3584   */\n      dup4\n        /* \"#utility.yul\":3571:3590   */\n      add\n        /* \"#utility.yul\":3562:3568   */\n      dup5\n        /* \"#utility.yul\":3518:3591   */\n      tag_75\n      jump\t// in\n    tag_151:\n        /* \"#utility.yul\":2530:3598   */\n      swap9\n      swap8\n      pop\n      pop\n      pop\n      pop\n      pop\n      pop\n      pop\n      pop\n      jump\t// out\n        /* \"#utility.yul\":3604:3721   */\n    tag_76:\n        /* \"#utility.yul\":3713:3714   */\n      0x00\n        /* \"#utility.yul\":3710:3711   */\n      dup1\n        /* \"#utility.yul\":3703:3715   */\n      revert\n        /* \"#utility.yul\":3727:3844   */\n    tag_77:\n        /* \"#utility.yul\":3836:3837   */\n      0x00\n        /* \"#utility.yul\":3833:3834   */\n      dup1\n        /* \"#utility.yul\":3826:3838   */\n      revert\n        /* \"#utility.yul\":3850:4030   */\n    tag_78:\n        /* \"#utility.yul\":3898:3975   */\n      0x4e487b7100000000000000000000000000000000000000000000000000000000\n        /* \"#utility.yul\":3895:3896   */\n      0x00\n        /* \"#utility.yul\":3888:3976   */\n      mstore\n        /* \"#utility.yul\":3995:3999   */\n      0x41\n        /* \"#utility.yul\":3992:3993   */\n      0x04\n        /* \"#utility.yul\":3985:4000   */\n      mstore\n        /* \"#utility.yul\":4019:4023   */\n      0x24\n        /* \"#utility.yul\":4016:4017   */\n      0x00\n        /* \"#utility.yul\":4009:4024   */\n      revert\n        /* \"#utility.yul\":4036:4317   */\n    tag_79:\n        /* \"#utility.yul\":4119:4146   */\n      tag_156\n        /* \"#utility.yul\":4141:4145   */\n      dup3\n        /* \"#utility.yul\":4119:4146   */\n      tag_70\n      jump\t// in\n    tag_156:\n        /* \"#utility.yul\":4111:4117   */\n      dup2\n        /* \"#utility.yul\":4107:4147   */\n      add\n        /* \"#utility.yul\":4249:4255   */\n      dup2\n        /* \"#utility.yul\":4237:4247   */\n      dup2\n        /* \"#utility.yul\":4234:4256   */\n      lt\n        /* \"#utility.yul\":4213:4231   */\n      0xffffffffffffffff\n        /* \"#utility.yul\":4201:4211   */\n      dup3\n        /* \"#utility.yul\":4198:4232   */\n      gt\n        /* \"#utility.yul\":4195:4257   */\n      or\n        /* \"#utility.yul\":4192:4280   */\n      iszero\n      tag_157\n      jumpi\n        /* \"#utility.yul\":4260:4278   */\n      tag_158\n      tag_78\n      jump\t// in\n    tag_158:\n        /* \"#utility.yul\":4192:4280   */\n    tag_157:\n        /* \"#utility.yul\":4300:4310   */\n      dup1\n        /* \"#utility.yul\":4296:4298   */\n      0x40\n        /* \"#utility.yul\":4289:4311   */\n      mstore\n        /* \"#utility.yul\":4079:4317   */\n      pop\n        /* \"#utility.yul\":4036:4317   */\n      pop\n      pop\n      jump\t// out\n        /* \"#utility.yul\":4323:4452   */\n    tag_80:\n        /* \"#utility.yul\":4357:4363   */\n      0x00\n        /* \"#utility.yul\":4384:4404   */\n      tag_160\n      tag_61\n      jump\t// in\n    tag_160:\n        /* \"#utility.yul\":4374:4404   */\n      swap1\n      pop\n        /* \"#utility.yul\":4413:4446   */\n      tag_161\n        /* \"#utility.yul\":4441:4445   */\n      dup3\n        /* \"#utility.yul\":4433:4439   */\n      dup3\n        /* \"#utility.yul\":4413:4446   */\n      tag_79\n      jump\t// in\n    tag_161:\n        /* \"#utility.yul\":4323:4452   */\n      swap2\n      swap1\n      pop\n      jump\t// out\n        /* \"#utility.yul\":4458:4766   */\n    tag_81:\n        /* \"#utility.yul\":4520:4524   */\n      0x00\n        /* \"#utility.yul\":4610:4628   */\n      0xffffffffffffffff\n        /* \"#utility.yul\":4602:4608   */\n      dup3\n        /* \"#utility.yul\":4599:4629   */\n      gt\n        /* \"#utility.yul\":4596:4652   */\n      iszero\n      tag_163\n      jumpi\n        /* \"#utility.yul\":4632:4650   */\n      tag_164\n      tag_78\n      jump\t// in\n    tag_164:\n        /* \"#utility.yul\":4596:4652   */\n    tag_163:\n        /* \"#utility.yul\":4670:4699   */\n      tag_165\n        /* \"#utility.yul\":4692:4698   */\n      dup3\n        /* \"#utility.yul\":4670:4699   */\n      tag_70\n      jump\t// in\n    tag_165:\n        /* \"#utility.yul\":4662:4699   */\n      swap1\n      pop\n        /* \"#utility.yul\":4754:4758   */\n      0x20\n        /* \"#utility.yul\":4748:4752   */\n      dup2\n        /* \"#utility.yul\":4744:4759   */\n      add\n        /* \"#utility.yul\":4736:4759   */\n      swap1\n      pop\n        /* \"#utility.yul\":4458:4766   */\n      swap2\n      swap1\n      pop\n      jump\t// out\n        /* \"#utility.yul\":4772:4918   */\n    tag_82:\n        /* \"#utility.yul\":4869:4875   */\n      dup3\n        /* \"#utility.yul\":4864:4867   */\n      dup2\n        /* \"#utility.yul\":4859:4862   */\n      dup4\n        /* \"#utility.yul\":4846:4876   */\n      calldatacopy\n        /* \"#utility.yul\":4910:4911   */\n      0x00\n        /* \"#utility.yul\":4901:4907   */\n      dup4\n        /* \"#utility.yul\":4896:4899   */\n      dup4\n        /* \"#utility.yul\":4892:4908   */\n      add\n        /* \"#utility.yul\":4885:4912   */\n      mstore\n        /* \"#utility.yul\":4772:4918   */\n      pop\n      pop\n      pop\n      jump\t// out\n        /* \"#utility.yul\":4924:5349   */\n    tag_83:\n        /* \"#utility.yul\":5002:5007   */\n      0x00\n        /* \"#utility.yul\":5027:5093   */\n      tag_168\n        /* \"#utility.yul\":5043:5092   */\n      tag_169\n        /* \"#utility.yul\":5085:5091   */\n      dup5\n        /* \"#utility.yul\":5043:5092   */\n      tag_81\n      jump\t// in\n    tag_169:\n        /* \"#utility.yul\":5027:5093   */\n      tag_80\n      jump\t// in\n    tag_168:\n        /* \"#utility.yul\":5018:5093   */\n      swap1\n      pop\n        /* \"#utility.yul\":5116:5122   */\n      dup3\n        /* \"#utility.yul\":5109:5114   */\n      dup2\n        /* \"#utility.yul\":5102:5123   */\n      mstore\n        /* \"#utility.yul\":5154:5158   */\n      0x20\n        /* \"#utility.yul\":5147:5152   */\n      dup2\n        /* \"#utility.yul\":5143:5159   */\n      add\n        /* \"#utility.yul\":5192:5195   */\n      dup5\n        /* \"#utility.yul\":5183:5189   */\n      dup5\n        /* \"#utility.yul\":5178:5181   */\n      dup5\n        /* \"#utility.yul\":5174:5190   */\n      add\n        /* \"#utility.yul\":5171:5196   */\n      gt\n        /* \"#utility.yul\":5168:5280   */\n      iszero\n      tag_170\n      jumpi\n        /* \"#utility.yul\":5199:5278   */\n      tag_171\n      tag_77\n      jump\t// in\n    tag_171:\n        /* \"#utility.yul\":5168:5280   */\n    tag_170:\n        /* \"#utility.yul\":5289:5343   */\n      tag_172\n        /* \"#utility.yul\":5336:5342   */\n      dup5\n        /* \"#utility.yul\":5331:5334   */\n      dup3\n        /* \"#utility.yul\":5326:5329   */\n      dup6\n        /* \"#utility.yul\":5289:5343   */\n      tag_82\n      jump\t// in\n    tag_172:\n        /* \"#utility.yul\":5008:5349   */\n      pop\n        /* \"#utility.yul\":4924:5349   */\n      swap4\n      swap3\n      pop\n      pop\n      pop\n      jump\t// out\n        /* \"#utility.yul\":5369:5709   */\n    tag_84:\n        /* \"#utility.yul\":5425:5430   */\n      0x00\n        /* \"#utility.yul\":5474:5477   */\n      dup3\n        /* \"#utility.yul\":5467:5471   */\n      0x1f\n        /* \"#utility.yul\":5459:5465   */\n      dup4\n        /* \"#utility.yul\":5455:5472   */\n      add\n        /* \"#utility.yul\":5451:5478   */\n      slt\n        /* \"#utility.yul\":5441:5563   */\n      tag_174\n      jumpi\n        /* \"#utility.yul\":5482:5561   */\n      tag_175\n      tag_76\n      jump\t// in\n    tag_175:\n        /* \"#utility.yul\":5441:5563   */\n    tag_174:\n        /* \"#utility.yul\":5599:5605   */\n      dup2\n        /* \"#utility.yul\":5586:5606   */\n      calldataload\n        /* \"#utility.yul\":5624:5703   */\n      tag_176\n        /* \"#utility.yul\":5699:5702   */\n      dup5\n        /* \"#utility.yul\":5691:5697   */\n      dup3\n        /* \"#utility.yul\":5684:5688   */\n      0x20\n        /* \"#utility.yul\":5676:5682   */\n      dup7\n        /* \"#utility.yul\":5672:5689   */\n      add\n        /* \"#utility.yul\":5624:5703   */\n      tag_83\n      jump\t// in\n    tag_176:\n        /* \"#utility.yul\":5615:5703   */\n      swap2\n      pop\n        /* \"#utility.yul\":5431:5709   */\n      pop\n        /* \"#utility.yul\":5369:5709   */\n      swap3\n      swap2\n      pop\n      pop\n      jump\t// out\n        /* \"#utility.yul\":5715:6694   */\n    tag_14:\n        /* \"#utility.yul\":5812:5818   */\n      0x00\n        /* \"#utility.yul\":5820:5826   */\n      dup1\n        /* \"#utility.yul\":5828:5834   */\n      0x00\n        /* \"#utility.yul\":5877:5879   */\n      0x60\n        /* \"#utility.yul\":5865:5874   */\n      dup5\n        /* \"#utility.yul\":5856:5863   */\n      dup7\n        /* \"#utility.yul\":5852:5875   */\n      sub\n        /* \"#utility.yul\":5848:5880   */\n      slt\n        /* \"#utility.yul\":5845:5964   */\n      iszero\n      tag_178\n      jumpi\n        /* \"#utility.yul\":5883:5962   */\n      tag_179\n      tag_62\n      jump\t// in\n    tag_179:\n        /* \"#utility.yul\":5845:5964   */\n    tag_178:\n        /* \"#utility.yul\":6031:6032   */\n      0x00\n        /* \"#utility.yul\":6020:6029   */\n      dup5\n        /* \"#utility.yul\":6016:6033   */\n      add\n        /* \"#utility.yul\":6003:6034   */\n      calldataload\n        /* \"#utility.yul\":6061:6079   */\n      0xffffffffffffffff\n        /* \"#utility.yul\":6053:6059   */\n      dup2\n        /* \"#utility.yul\":6050:6080   */\n      gt\n        /* \"#utility.yul\":6047:6164   */\n      iszero\n      tag_180\n      jumpi\n        /* \"#utility.yul\":6083:6162   */\n      tag_181\n      tag_63\n      jump\t// in\n    tag_181:\n        /* \"#utility.yul\":6047:6164   */\n    tag_180:\n        /* \"#utility.yul\":6188:6251   */\n      tag_182\n        /* \"#utility.yul\":6243:6250   */\n      dup7\n        /* \"#utility.yul\":6234:6240   */\n      dup3\n        /* \"#utility.yul\":6223:6232   */\n      dup8\n        /* \"#utility.yul\":6219:6241   */\n      add\n        /* \"#utility.yul\":6188:6251   */\n      tag_84\n      jump\t// in\n    tag_182:\n        /* \"#utility.yul\":6178:6251   */\n      swap4\n      pop\n        /* \"#utility.yul\":5974:6261   */\n      pop\n        /* \"#utility.yul\":6328:6330   */\n      0x20\n        /* \"#utility.yul\":6317:6326   */\n      dup5\n        /* \"#utility.yul\":6313:6331   */\n      add\n        /* \"#utility.yul\":6300:6332   */\n      calldataload\n        /* \"#utility.yul\":6359:6377   */\n      0xffffffffffffffff\n        /* \"#utility.yul\":6351:6357   */\n      dup2\n        /* \"#utility.yul\":6348:6378   */\n      gt\n        /* \"#utility.yul\":6345:6462   */\n      iszero\n      tag_183\n      jumpi\n        /* \"#utility.yul\":6381:6460   */\n      tag_184\n      tag_63\n      jump\t// in\n    tag_184:\n        /* \"#utility.yul\":6345:6462   */\n    tag_183:\n        /* \"#utility.yul\":6486:6549   */\n      tag_185\n        /* \"#utility.yul\":6541:6548   */\n      dup7\n        /* \"#utility.yul\":6532:6538   */\n      dup3\n        /* \"#utility.yul\":6521:6530   */\n      dup8\n        /* \"#utility.yul\":6517:6539   */\n      add\n        /* \"#utility.yul\":6486:6549   */\n      tag_84\n      jump\t// in\n    tag_185:\n        /* \"#utility.yul\":6476:6549   */\n      swap3\n      pop\n        /* \"#utility.yul\":6271:6559   */\n      pop\n        /* \"#utility.yul\":6598:6600   */\n      0x40\n        /* \"#utility.yul\":6624:6677   */\n      tag_186\n        /* \"#utility.yul\":6669:6676   */\n      dup7\n        /* \"#utility.yul\":6660:6666   */\n      dup3\n        /* \"#utility.yul\":6649:6658   */\n      dup8\n        /* \"#utility.yul\":6645:6667   */\n      add\n        /* \"#utility.yul\":6624:6677   */\n      tag_66\n      jump\t// in\n    tag_186:\n        /* \"#utility.yul\":6614:6677   */\n      swap2\n      pop\n        /* \"#utility.yul\":6569:6687   */\n      pop\n        /* \"#utility.yul\":5715:6694   */\n      swap3\n      pop\n      swap3\n      pop\n      swap3\n      jump\t// out\n        /* \"#utility.yul\":6700:6790   */\n    tag_85:\n        /* \"#utility.yul\":6734:6741   */\n      0x00\n        /* \"#utility.yul\":6777:6782   */\n      dup2\n        /* \"#utility.yul\":6770:6783   */\n      iszero\n        /* \"#utility.yul\":6763:6784   */\n      iszero\n        /* \"#utility.yul\":6752:6784   */\n      swap1\n      pop\n        /* \"#utility.yul\":6700:6790   */\n      swap2\n      swap1\n      pop\n      jump\t// out\n        /* \"#utility.yul\":6796:6912   */\n    tag_86:\n        /* \"#utility.yul\":6866:6887   */\n      tag_189\n        /* \"#utility.yul\":6881:6886   */\n      dup2\n        /* \"#utility.yul\":6866:6887   */\n      tag_85\n      jump\t// in\n    tag_189:\n        /* \"#utility.yul\":6859:6864   */\n      dup2\n        /* \"#utility.yul\":6856:6888   */\n      eq\n        /* \"#utility.yul\":6846:6906   */\n      tag_190\n      jumpi\n        /* \"#utility.yul\":6902:6903   */\n      0x00\n        /* \"#utility.yul\":6899:6900   */\n      dup1\n        /* \"#utility.yul\":6892:6904   */\n      revert\n        /* \"#utility.yul\":6846:6906   */\n    tag_190:\n        /* \"#utility.yul\":6796:6912   */\n      pop\n      jump\t// out\n        /* \"#utility.yul\":6918:7051   */\n    tag_87:\n        /* \"#utility.yul\":6961:6966   */\n      0x00\n        /* \"#utility.yul\":6999:7005   */\n      dup2\n        /* \"#utility.yul\":6986:7006   */\n      calldataload\n        /* \"#utility.yul\":6977:7006   */\n      swap1\n      pop\n        /* \"#utility.yul\":7015:7045   */\n      tag_192\n        /* \"#utility.yul\":7039:7044   */\n      dup2\n        /* \"#utility.yul\":7015:7045   */\n      tag_86\n      jump\t// in\n    tag_192:\n        /* \"#utility.yul\":6918:7051   */\n      swap3\n      swap2\n      pop\n      pop\n      jump\t// out\n        /* \"#utility.yul\":7057:7525   */\n    tag_18:\n        /* \"#utility.yul\":7122:7128   */\n      0x00\n        /* \"#utility.yul\":7130:7136   */\n      dup1\n        /* \"#utility.yul\":7179:7181   */\n      0x40\n        /* \"#utility.yul\":7167:7176   */\n      dup4\n        /* \"#utility.yul\":7158:7165   */\n      dup6\n        /* \"#utility.yul\":7154:7177   */\n      sub\n        /* \"#utility.yul\":7150:7182   */\n      slt\n        /* \"#utility.yul\":7147:7266   */\n      iszero\n      tag_194\n      jumpi\n        /* \"#utility.yul\":7185:7264   */\n      tag_195\n      tag_62\n      jump\t// in\n    tag_195:\n        /* \"#utility.yul\":7147:7266   */\n    tag_194:\n        /* \"#utility.yul\":7305:7306   */\n      0x00\n        /* \"#utility.yul\":7330:7383   */\n      tag_196\n        /* \"#utility.yul\":7375:7382   */\n      dup6\n        /* \"#utility.yul\":7366:7372   */\n      dup3\n        /* \"#utility.yul\":7355:7364   */\n      dup7\n        /* \"#utility.yul\":7351:7373   */\n      add\n        /* \"#utility.yul\":7330:7383   */\n      tag_66\n      jump\t// in\n    tag_196:\n        /* \"#utility.yul\":7320:7383   */\n      swap3\n      pop\n        /* \"#utility.yul\":7276:7393   */\n      pop\n        /* \"#utility.yul\":7432:7434   */\n      0x20\n        /* \"#utility.yul\":7458:7508   */\n      tag_197\n        /* \"#utility.yul\":7500:7507   */\n      dup6\n        /* \"#utility.yul\":7491:7497   */\n      dup3\n        /* \"#utility.yul\":7480:7489   */\n      dup7\n        /* \"#utility.yul\":7476:7498   */\n      add\n        /* \"#utility.yul\":7458:7508   */\n      tag_87\n      jump\t// in\n    tag_197:\n        /* \"#utility.yul\":7448:7508   */\n      swap2\n      pop\n        /* \"#utility.yul\":7403:7518   */\n      pop\n        /* \"#utility.yul\":7057:7525   */\n      swap3\n      pop\n      swap3\n      swap1\n      pop\n      jump\t// out\n        /* \"#utility.yul\":7531:7711   */\n    tag_88:\n        /* \"#utility.yul\":7579:7656   */\n      0x4e487b7100000000000000000000000000000000000000000000000000000000\n        /* \"#utility.yul\":7576:7577   */\n      0x00\n        /* \"#utility.yul\":7569:7657   */\n      mstore\n        /* \"#utility.yul\":7676:7680   */\n      0x22\n        /* \"#utility.yul\":7673:7674   */\n      0x04\n        /* \"#utility.yul\":7666:7681   */\n      mstore\n        /* \"#utility.yul\":7700:7704   */\n      0x24\n        /* \"#utility.yul\":7697:7698   */\n      0x00\n        /* \"#utility.yul\":7690:7705   */\n      revert\n        /* \"#utility.yul\":7717:8037   */\n    tag_23:\n        /* \"#utility.yul\":7761:7767   */\n      0x00\n        /* \"#utility.yul\":7798:7799   */\n      0x02\n        /* \"#utility.yul\":7792:7796   */\n      dup3\n        /* \"#utility.yul\":7788:7800   */\n      div\n        /* \"#utility.yul\":7778:7800   */\n      swap1\n      pop\n        /* \"#utility.yul\":7845:7846   */\n      0x01\n        /* \"#utility.yul\":7839:7843   */\n      dup3\n        /* \"#utility.yul\":7835:7847   */\n      and\n        /* \"#utility.yul\":7866:7884   */\n      dup1\n        /* \"#utility.yul\":7856:7937   */\n      tag_200\n      jumpi\n        /* \"#utility.yul\":7922:7926   */\n      0x7f\n        /* \"#utility.yul\":7914:7920   */\n      dup3\n        /* \"#utility.yul\":7910:7927   */\n      and\n        /* \"#utility.yul\":7900:7927   */\n      swap2\n      pop\n        /* \"#utility.yul\":7856:7937   */\n    tag_200:\n        /* \"#utility.yul\":7984:7986   */\n      0x20\n        /* \"#utility.yul\":7976:7982   */\n      dup3\n        /* \"#utility.yul\":7973:7987   */\n      lt\n        /* \"#utility.yul\":7953:7971   */\n      dup2\n        /* \"#utility.yul\":7950:7988   */\n      sub\n        /* \"#utility.yul\":7947:8031   */\n      tag_201\n      jumpi\n        /* \"#utility.yul\":8003:8021   */\n      tag_202\n      tag_88\n      jump\t// in\n    tag_202:\n        /* \"#utility.yul\":7947:8031   */\n    tag_201:\n        /* \"#utility.yul\":7768:8037   */\n      pop\n        /* \"#utility.yul\":7717:8037   */\n      swap2\n      swap1\n      pop\n      jump\t// out\n        /* \"#utility.yul\":8043:8184   */\n    tag_89:\n        /* \"#utility.yul\":8092:8096   */\n      0x00\n        /* \"#utility.yul\":8115:8118   */\n      dup2\n        /* \"#utility.yul\":8107:8118   */\n      swap1\n      pop\n        /* \"#utility.yul\":8138:8141   */\n      dup2\n        /* \"#utility.yul\":8135:8136   */\n      0x00\n        /* \"#utility.yul\":8128:8142   */\n      mstore\n        /* \"#utility.yul\":8172:8176   */\n      0x20\n        /* \"#utility.yul\":8169:8170   */\n      0x00\n        /* \"#utility.yul\":8159:8177   */\n      keccak256\n        /* \"#utility.yul\":8151:8177   */\n      swap1\n      pop\n        /* \"#utility.yul\":8043:8184   */\n      swap2\n      swap1\n      pop\n      jump\t// out\n        /* \"#utility.yul\":8190:8283   */\n    tag_90:\n        /* \"#utility.yul\":8227:8233   */\n      0x00\n        /* \"#utility.yul\":8274:8276   */\n      0x20\n        /* \"#utility.yul\":8269:8271   */\n      0x1f\n        /* \"#utility.yul\":8262:8267   */\n      dup4\n        /* \"#utility.yul\":8258:8272   */\n      add\n        /* \"#utility.yul\":8254:8277   */\n      div\n        /* \"#utility.yul\":8244:8277   */\n      swap1\n      pop\n        /* \"#utility.yul\":8190:8283   */\n      swap2\n      swap1\n      pop\n      jump\t// out\n        /* \"#utility.yul\":8289:8396   */\n    tag_91:\n        /* \"#utility.yul\":8333:8341   */\n      0x00\n        /* \"#utility.yul\":8383:8388   */\n      dup3\n        /* \"#utility.yul\":8377:8381   */\n      dup3\n        /* \"#utility.yul\":8373:8389   */\n      shl\n        /* \"#utility.yul\":8352:8389   */\n      swap1\n      pop\n        /* \"#utility.yul\":8289:8396   */\n      swap3\n      swap2\n      pop\n      pop\n      jump\t// out\n        /* \"#utility.yul\":8402:8795   */\n    tag_92:\n        /* \"#utility.yul\":8471:8477   */\n      0x00\n        /* \"#utility.yul\":8521:8522   */\n      0x08\n        /* \"#utility.yul\":8509:8519   */\n      dup4\n        /* \"#utility.yul\":8505:8523   */\n      mul\n        /* \"#utility.yul\":8544:8641   */\n      tag_207\n        /* \"#utility.yul\":8574:8640   */\n      0xffffffffffffffffffffffffffffffffffffffffffffffffffffffffffffffff\n        /* \"#utility.yul\":8563:8572   */\n      dup3\n        /* \"#utility.yul\":8544:8641   */\n      tag_91\n      jump\t// in\n    tag_207:\n        /* \"#utility.yul\":8662:8701   */\n      tag_208\n        /* \"#utility.yul\":8692:8700   */\n      dup7\n        /* \"#utility.yul\":8681:8690   */\n      dup4\n        /* \"#utility.yul\":8662:8701   */\n      tag_91\n      jump\t// in\n    tag_208:\n        /* \"#utility.yul\":8650:8701   */\n      swap6\n      pop\n        /* \"#utility.yul\":8734:8738   */\n      dup1\n        /* \"#utility.yul\":8730:8739   */\n      not\n        /* \"#utility.yul\":8723:8728   */\n      dup5\n        /* \"#utility.yul\":8719:8740   */\n      and\n        /* \"#utility.yul\":8710:8740   */\n      swap4\n      pop\n        /* \"#utility.yul\":8783:8787   */\n      dup1\n        /* \"#utility.yul\":8773:8781   */\n      dup7\n        /* \"#utility.yul\":8769:8788   */\n      and\n        /* \"#utility.yul\":8762:8767   */\n      dup5\n        /* \"#utility.yul\":8759:8789   */\n      or\n        /* \"#utility.yul\":8749:8789   */\n      swap3\n      pop\n        /* \"#utility.yul\":8478:8795   */\n      pop\n      pop\n        /* \"#utility.yul\":8402:8795   */\n      swap4\n      swap3\n      pop\n      pop\n      pop\n      jump\t// out\n        /* \"#utility.yul\":8801:8861   */\n    tag_93:\n        /* \"#utility.yul\":8829:8832   */\n      0x00\n        /* \"#utility.yul\":8850:8855   */\n      dup2\n        /* \"#utility.yul\":8843:8855   */\n      swap1\n      pop\n        /* \"#utility.yul\":8801:8861   */\n      swap2\n      swap1\n      pop\n      jump\t// out\n        /* \"#utility.yul\":8867:9009   */\n    tag_94:\n        /* \"#utility.yul\":8917:8926   */\n      0x00\n        /* \"#utility.yul\":8950:9003   */\n      tag_211\n        /* \"#utility.yul\":8968:9002   */\n      tag_212\n        /* \"#utility.yul\":8977:9001   */\n      tag_213\n        /* \"#utility.yul\":8995:9000   */\n      dup5\n        /* \"#utility.yul\":8977:9001   */\n      tag_64\n      jump\t// in\n    tag_213:\n        /* \"#utility.yul\":8968:9002   */\n      tag_93\n      jump\t// in\n    tag_212:\n        /* \"#utility.yul\":8950:9003   */\n      tag_64\n      jump\t// in\n    tag_211:\n        /* \"#utility.yul\":8937:9003   */\n      swap1\n      pop\n        /* \"#utility.yul\":8867:9009   */\n      swap2\n      swap1\n      pop\n      jump\t// out\n        /* \"#utility.yul\":9015:9090   */\n    tag_95:\n        /* \"#utility.yul\":9058:9061   */\n      0x00\n        /* \"#utility.yul\":9079:9084   */\n      dup2\n        /* \"#utility.yul\":9072:9084   */\n      swap1\n      pop\n        /* \"#utility.yul\":9015:9090   */\n      swap2\n      swap1\n      pop\n      jump\t// out\n        /* \"#utility.yul\":9096:9365   */\n    tag_96:\n        /* \"#utility.yul\":9206:9245   */\n      tag_216\n        /* \"#utility.yul\":9237:9244   */\n      dup4\n        /* \"#utility.yul\":9206:9245   */\n      tag_94\n      jump\t// in\n    tag_216:\n        /* \"#utility.yul\":9267:9358   */\n      tag_217\n        /* \"#utility.yul\":9316:9357   */\n      tag_218\n        /* \"#utility.yul\":9340:9356   */\n      dup3\n        /* \"#utility.yul\":9316:9357   */\n      tag_95\n      jump\t// in\n    tag_218:\n        /* \"#utility.yul\":9308:9314   */\n      dup5\n        /* \"#utility.yul\":9301:9305   */\n      dup5\n        /* \"#utility.yul\":9295:9306   */\n      sload\n        /* \"#utility.yul\":9267:9358   */\n      tag_92\n      jump\t// in\n    tag_217:\n        /* \"#utility.yul\":9261:9265   */\n      dup3\n        /* \"#utility.yul\":9254:9359   */\n      sstore\n        /* \"#utility.yul\":9172:9365   */\n      pop\n        /* \"#utility.yul\":9096:9365   */\n      pop\n      pop\n      pop\n      jump\t// out\n        /* \"#utility.yul\":9371:9444   */\n    tag_97:\n        /* \"#utility.yul\":9416:9419   */\n      0x00\n        /* \"#utility.yul\":9371:9444   */\n      swap1\n      jump\t// out\n        /* \"#utility.yul\":9450:9639   */\n    tag_98:\n        /* \"#utility.yul\":9527:9559   */\n      tag_221\n      tag_97\n      jump\t// in\n    tag_221:\n        /* \"#utility.yul\":9568:9633   */\n      tag_222\n        /* \"#utility.yul\":9626:9632   */\n      dup2\n        /* \"#utility.yul\":9618:9624   */\n      dup5\n        /* \"#utility.yul\":9612:9616   */\n      dup5\n        /* \"#utility.yul\":9568:9633   */\n      tag_96\n      jump\t// in\n    tag_222:\n        /* \"#utility.yul\":9503:9639   */\n      pop\n        /* \"#utility.yul\":9450:9639   */\n      pop\n      pop\n      jump\t// out\n        /* \"#utility.yul\":9645:9831   */\n    tag_99:\n        /* \"#utility.yul\":9705:9825   */\n    tag_224:\n        /* \"#utility.yul\":9722:9725   */\n      dup2\n        /* \"#utility.yul\":9715:9720   */\n      dup2\n        /* \"#utility.yul\":9712:9726   */\n      lt\n        /* \"#utility.yul\":9705:9825   */\n      iszero\n      tag_226\n      jumpi\n        /* \"#utility.yul\":9776:9815   */\n      tag_227\n        /* \"#utility.yul\":9813:9814   */\n      0x00\n        /* \"#utility.yul\":9806:9811   */\n      dup3\n        /* \"#utility.yul\":9776:9815   */\n      tag_98\n      jump\t// in\n    tag_227:\n        /* \"#utility.yul\":9749:9750   */\n      0x01\n        /* \"#utility.yul\":9742:9747   */\n      dup2\n        /* \"#utility.yul\":9738:9751   */\n      add\n        /* \"#utility.yul\":9729:9751   */\n      swap1\n      pop\n        /* \"#utility.yul\":9705:9825   */\n      jump(tag_224)\n    tag_226:\n        /* \"#utility.yul\":9645:9831   */\n      pop\n      pop\n      jump\t// out\n        /* \"#utility.yul\":9837:10380   */\n    tag_100:\n        /* \"#utility.yul\":9938:9940   */\n      0x1f\n        /* \"#utility.yul\":9933:9936   */\n      dup3\n        /* \"#utility.yul\":9930:9941   */\n      gt\n        /* \"#utility.yul\":9927:10373   */\n      iszero\n      tag_229\n      jumpi\n        /* \"#utility.yul\":9972:10010   */\n      tag_230\n        /* \"#utility.yul\":10004:10009   */\n      dup2\n        /* \"#utility.yul\":9972:10010   */\n      tag_89\n      jump\t// in\n    tag_230:\n        /* \"#utility.yul\":10056:10085   */\n      tag_231\n        /* \"#utility.yul\":10074:10084   */\n      dup5\n        /* \"#utility.yul\":10056:10085   */\n      tag_90\n      jump\t// in\n    tag_231:\n        /* \"#utility.yul\":10046:10054   */\n      dup2\n        /* \"#utility.yul\":10042:10086   */\n      add\n        /* \"#utility.yul\":10239:10241   */\n      0x20\n        /* \"#utility.yul\":10227:10237   */\n      dup6\n        /* \"#utility.yul\":10224:10242   */\n      lt\n        /* \"#utility.yul\":10221:10270   */\n      iszero\n      tag_232\n      jumpi\n        /* \"#utility.yul\":10260:10268   */\n      dup2\n        /* \"#utility.yul\":10245:10268   */\n      swap1\n      pop\n        /* \"#utility.yul\":10221:10270   */\n    tag_232:\n        /* \"#utility.yul\":10283:10363   */\n      tag_233\n        /* \"#utility.yul\":10339:10361   */\n      tag_234\n        /* \"#utility.yul\":10357:10360   */\n      dup6\n        /* \"#utility.yul\":10339:10361   */\n      tag_90\n      jump\t// in\n    tag_234:\n        /* \"#utility.yul\":10329:10337   */\n      dup4\n        /* \"#utility.yul\":10325:10362   */\n      add\n        /* \"#utility.yul\":10312:10323   */\n      dup3\n        /* \"#utility.yul\":10283:10363   */\n      tag_99\n      jump\t// in\n    tag_233:\n        /* \"#utility.yul\":9942:10373   */\n      pop\n      pop\n        /* \"#utility.yul\":9927:10373   */\n    tag_229:\n        /* \"#utility.yul\":9837:10380   */\n      pop\n      pop\n      pop\n      jump\t// out\n        /* \"#utility.yul\":10386:10503   */\n    tag_101:\n        /* \"#utility.yul\":10440:10448   */\n      0x00\n        /* \"#utility.yul\":10490:10495   */\n      dup3\n        /* \"#utility.yul\":10484:10488   */\n      dup3\n        /* \"#utility.yul\":10480:10496   */\n      shr\n        /* \"#utility.yul\":10459:10496   */\n      swap1\n      pop\n        /* \"#utility.yul\":10386:10503   */\n      swap3\n      swap2\n      pop\n      pop\n      jump\t// out\n        /* \"#utility.yul\":10509:10678   */\n    tag_102:\n        /* \"#utility.yul\":10553:10559   */\n      0x00\n        /* \"#utility.yul\":10586:10637   */\n      tag_237\n        /* \"#utility.yul\":10634:10635   */\n      0x00\n        /* \"#utility.yul\":10630:10636   */\n      not\n        /* \"#utility.yul\":10622:10627   */\n      dup5\n        /* \"#utility.yul\":10619:10620   */\n      0x08\n        /* \"#utility.yul\":10615:10628   */\n      mul\n        /* \"#utility.yul\":10586:10637   */\n      tag_101\n      jump\t// in\n    tag_237:\n        /* \"#utility.yul\":10582:10638   */\n      not\n        /* \"#utility.yul\":10667:10671   */\n      dup1\n        /* \"#utility.yul\":10661:10665   */\n      dup4\n        /* \"#utility.yul\":10657:10672   */\n      and\n        /* \"#utility.yul\":10647:10672   */\n      swap2\n      pop\n        /* \"#utility.yul\":10560:10678   */\n      pop\n        /* \"#utility.yul\":10509:10678   */\n      swap3\n      swap2\n      pop\n      pop\n      jump\t// out\n        /* \"#utility.yul\":10683:10978   */\n    tag_103:\n        /* \"#utility.yul\":10759:10763   */\n      0x00\n        /* \"#utility.yul\":10905:10934   */\n      tag_239\n        /* \"#utility.yul\":10930:10933   */\n      dup4\n        /* \"#utility.yul\":10924:10928   */\n      dup4\n        /* \"#utility.yul\":10905:10934   */\n      tag_102\n      jump\t// in\n    tag_239:\n        /* \"#utility.yul\":10897:10934   */\n      swap2\n      pop\n        /* \"#utility.yul\":10967:10970   */\n      dup3\n        /* \"#utility.yul\":10964:10965   */\n      0x02\n        /* \"#utility.yul\":10960:10971   */\n      mul\n        /* \"#utility.yul\":10954:10958   */\n      dup3\n        /* \"#utility.yul\":10951:10972   */\n      or\n        /* \"#utility.yul\":10943:10972   */\n      swap1\n      pop\n        /* \"#utility.yul\":10683:10978   */\n      swap3\n      swap2\n      pop\n      pop\n      jump\t// out\n        /* \"#utility.yul\":10983:12378   */\n    tag_36:\n        /* \"#utility.yul\":11100:11137   */\n      tag_241\n        /* \"#utility.yul\":11133:11136   */\n      dup3\n        /* \"#utility.yul\":11100:11137   */\n      tag_67\n      jump\t// in\n    tag_241:\n        /* \"#utility.yul\":11202:11220   */\n      0xffffffffffffffff\n        /* \"#utility.yul\":11194:11200   */\n      dup2\n        /* \"#utility.yul\":11191:11221   */\n      gt\n        /* \"#utility.yul\":11188:11244   */\n      iszero\n      tag_242\n      jumpi\n        /* \"#utility.yul\":11224:11242   */\n      tag_243\n      tag_78\n      jump\t// in\n    tag_243:\n        /* \"#utility.yul\":11188:11244   */\n    tag_242:\n        /* \"#utility.yul\":11268:11306   */\n      tag_244\n        /* \"#utility.yul\":11300:11304   */\n      dup3\n        /* \"#utility.yul\":11294:11305   */\n      sload\n        /* \"#utility.yul\":11268:11306   */\n      tag_23\n      jump\t// in\n    tag_244:\n        /* \"#utility.yul\":11353:11420   */\n      tag_245\n        /* \"#utility.yul\":11413:11419   */\n      dup3\n        /* \"#utility.yul\":11405:11411   */\n      dup3\n        /* \"#utility.yul\":11399:11403   */\n      dup6\n        /* \"#utility.yul\":11353:11420   */\n      tag_100\n      jump\t// in\n    tag_245:\n        /* \"#utility.yul\":11447:11448   */\n      0x00\n        /* \"#utility.yul\":11471:11475   */\n      0x20\n        /* \"#utility.yul\":11458:11475   */\n      swap1\n      pop\n        /* \"#utility.yul\":11503:11505   */\n      0x1f\n        /* \"#utility.yul\":11495:11501   */\n      dup4\n        /* \"#utility.yul\":11492:11506   */\n      gt\n        /* \"#utility.yul\":11520:11521   */\n      0x01\n        /* \"#utility.yul\":11515:12133   */\n      dup2\n      eq\n      tag_247\n      jumpi\n        /* \"#utility.yul\":12177:12178   */\n      0x00\n        /* \"#utility.yul\":12194:12200   */\n      dup5\n        /* \"#utility.yul\":12191:12268   */\n      iszero\n      tag_248\n      jumpi\n        /* \"#utility.yul\":12243:12252   */\n      dup3\n        /* \"#utility.yul\":12238:12241   */\n      dup8\n        /* \"#utility.yul\":12234:12253   */\n      add\n        /* \"#utility.yul\":12228:12254   */\n      mload\n        /* \"#utility.yul\":12219:12254   */\n      swap1\n      pop\n        /* \"#utility.yul\":12191:12268   */\n    tag_248:\n        /* \"#utility.yul\":12294:12361   */\n      tag_249\n        /* \"#utility.yul\":12354:12360   */\n      dup6\n        /* \"#utility.yul\":12347:12352   */\n      dup3\n        /* \"#utility.yul\":12294:12361   */\n      tag_103\n      jump\t// in\n    tag_249:\n        /* \"#utility.yul\":12288:12292   */\n      dup7\n        /* \"#utility.yul\":12281:12362   */\n      sstore\n        /* \"#utility.yul\":12150:12372   */\n      pop\n        /* \"#utility.yul\":11485:12372   */\n      jump(tag_246)\n        /* \"#utility.yul\":11515:12133   */\n    tag_247:\n        /* \"#utility.yul\":11567:11571   */\n      0x1f\n        /* \"#utility.yul\":11563:11572   */\n      not\n        /* \"#utility.yul\":11555:11561   */\n      dup5\n        /* \"#utility.yul\":11551:11573   */\n      and\n        /* \"#utility.yul\":11601:11638   */\n      tag_250\n        /* \"#utility.yul\":11633:11637   */\n      dup7\n        /* \"#utility.yul\":11601:11638   */\n      tag_89\n      jump\t// in\n    tag_250:\n        /* \"#utility.yul\":11660:11661   */\n      0x00\n        /* \"#utility.yul\":11674:11882   */\n    tag_251:\n        /* \"#utility.yul\":11688:11695   */\n      dup3\n        /* \"#utility.yul\":11685:11686   */\n      dup2\n        /* \"#utility.yul\":11682:11696   */\n      lt\n        /* \"#utility.yul\":11674:11882   */\n      iszero\n      tag_253\n      jumpi\n        /* \"#utility.yul\":11767:11776   */\n      dup5\n        /* \"#utility.yul\":11762:11765   */\n      dup10\n        /* \"#utility.yul\":11758:11777   */\n      add\n        /* \"#utility.yul\":11752:11778   */\n      mload\n        /* \"#utility.yul\":11744:11750   */\n      dup3\n        /* \"#utility.yul\":11737:11779   */\n      sstore\n        /* \"#utility.yul\":11818:11819   */\n      0x01\n        /* \"#utility.yul\":11810:11816   */\n      dup3\n        /* \"#utility.yul\":11806:11820   */\n      add\n        /* \"#utility.yul\":11796:11820   */\n      swap2\n      pop\n        /* \"#utility.yul\":11865:11867   */\n      0x20\n        /* \"#utility.yul\":11854:11863   */\n      dup6\n        /* \"#utility.yul\":11850:11868   */\n      add\n        /* \"#utility.yul\":11837:11868   */\n      swap5\n      pop\n        /* \"#utility.yul\":11711:11715   */\n      0x20\n        /* \"#utility.yul\":11708:11709   */\n      dup2\n        /* \"#utility.yul\":11704:11716   */\n      add\n        /* \"#utility.yul\":11699:11716   */\n      swap1\n      pop\n        /* \"#utility.yul\":11674:11882   */\n      jump(tag_251)\n    tag_253:\n        /* \"#utility.yul\":11910:11916   */\n      dup7\n        /* \"#utility.yul\":11901:11908   */\n      dup4\n        /* \"#utility.yul\":11898:11917   */\n      lt\n        /* \"#utility.yul\":11895:12074   */\n      iszero\n      tag_254\n      jumpi\n        /* \"#utility.yul\":11968:11977   */\n      dup5\n        /* \"#utility.yul\":11963:11966   */\n      dup10\n        /* \"#utility.yul\":11959:11978   */\n      add\n        /* \"#utility.yul\":11953:11979   */\n      mload\n        /* \"#utility.yul\":12011:12059   */\n      tag_255\n        /* \"#utility.yul\":12053:12057   */\n      0x1f\n        /* \"#utility.yul\":12045:12051   */\n      dup10\n        /* \"#utility.yul\":12041:12058   */\n      and\n        /* \"#utility.yul\":12030:12039   */\n      dup3\n        /* \"#utility.yul\":12011:12059   */\n      tag_102\n      jump\t// in\n    tag_255:\n        /* \"#utility.yul\":12003:12009   */\n      dup4\n        /* \"#utility.yul\":11996:12060   */\n      sstore\n        /* \"#utility.yul\":11918:12074   */\n      pop\n        /* \"#utility.yul\":11895:12074   */\n    tag_254:\n        /* \"#utility.yul\":12120:12121   */\n      0x01\n        /* \"#utility.yul\":12116:12117   */\n      0x02\n        /* \"#utility.yul\":12108:12114   */\n      dup9\n        /* \"#utility.yul\":12104:12118   */\n      mul\n        /* \"#utility.yul\":12100:12122   */\n      add\n        /* \"#utility.yul\":12094:12098   */\n      dup9\n        /* \"#utility.yul\":12087:12123   */\n      sstore\n        /* \"#utility.yul\":11522:12133   */\n      pop\n      pop\n      pop\n        /* \"#utility.yul\":11485:12372   */\n    tag_246:\n      pop\n        /* \"#utility.yul\":11075:12378   */\n      pop\n      pop\n      pop\n        /* \"#utility.yul\":10983:12378   */\n      pop\n      pop\n      jump\t// out\n        /* \"#utility.yul\":12384:12564   */\n    tag_104:\n        /* \"#utility.yul\":12432:12509   */\n      0x4e487b7100000000000000000000000000000000000000000000000000000000\n        /* \"#utility.yul\":12429:12430   */\n      0x00\n        /* \"#utility.yul\":12422:12510   */\n      mstore\n        /* \"#utility.yul\":12529:12533   */\n      0x11\n        /* \"#utility.yul\":12526:12527   */\n      0x04\n        /* \"#utility.yul\":12519:12534   */\n      mstore\n        /* \"#utility.yul\":12553:12557   */\n      0x24\n        /* \"#utility.yul\":12550:12551   */\n      0x00\n        /* \"#utility.yul\":12543:12558   */\n      revert\n        /* \"#utility.yul\":12570:12980   */\n    tag_39:\n        /* \"#utility.yul\":12610:12617   */\n      0x00\n        /* \"#utility.yul\":12633:12653   */\n      tag_258\n        /* \"#utility.yul\":12651:12652   */\n      dup3\n        /* \"#utility.yul\":12633:12653   */\n      tag_64\n      jump\t// in\n    tag_258:\n        /* \"#utility.yul\":12628:12653   */\n      swap2\n      pop\n        /* \"#utility.yul\":12667:12687   */\n      tag_259\n        /* \"#utility.yul\":12685:12686   */\n      dup4\n        /* \"#utility.yul\":12667:12687   */\n      tag_64\n      jump\t// in\n    tag_259:\n        /* \"#utility.yul\":12662:12687   */\n      swap3\n      pop\n        /* \"#utility.yul\":12722:12723   */\n      dup3\n        /* \"#utility.yul\":12719:12720   */\n      dup3\n        /* \"#utility.yul\":12715:12724   */\n      mul\n        /* \"#utility.yul\":12744:12774   */\n      tag_260\n        /* \"#utility.yul\":12762:12773   */\n      dup2\n        /* \"#utility.yul\":12744:12774   */\n      tag_64\n      jump\t// in\n    tag_260:\n        /* \"#utility.yul\":12733:12774   */\n      swap2\n      pop\n        /* \"#utility.yul\":12923:12924   */\n      dup3\n        /* \"#utility.yul\":12914:12921   */\n      dup3\n        /* \"#utility.yul\":12910:12925   */\n      div\n        /* \"#utility.yul\":12907:12908   */\n      dup5\n        /* \"#utility.yul\":12904:12926   */\n      eq\n        /* \"#utility.yul\":12884:12885   */\n      dup4\n        /* \"#utility.yul\":12877:12886   */\n      iszero\n        /* \"#utility.yul\":12857:12940   */\n      or\n        /* \"#utility.yul\":12834:12973   */\n      tag_261\n      jumpi\n        /* \"#utility.yul\":12953:12971   */\n      tag_262\n      tag_104\n      jump\t// in\n    tag_262:\n        /* \"#utility.yul\":12834:12973   */\n    tag_261:\n        /* \"#utility.yul\":12618:12980   */\n      pop\n        /* \"#utility.yul\":12570:12980   */\n      swap3\n      swap2\n      pop\n      pop\n      jump\t// out\n        /* \"#utility.yul\":12986:13177   */\n    tag_41:\n        /* \"#utility.yul\":13026:13029   */\n      0x00\n        /* \"#utility.yul\":13045:13065   */\n      tag_264\n        /* \"#utility.yul\":13063:13064   */\n      dup3\n        /* \"#utility.yul\":13045:13065   */\n      tag_64\n      jump\t// in\n    tag_264:\n        /* \"#utility.yul\":13040:13065   */\n      swap2\n      pop\n        /* \"#utility.yul\":13079:13099   */\n      tag_265\n        /* \"#utility.yul\":13097:13098   */\n      dup4\n        /* \"#utility.yul\":13079:13099   */\n      tag_64\n      jump\t// in\n    tag_265:\n        /* \"#utility.yul\":13074:13099   */\n      swap3\n      pop\n        /* \"#utility.yul\":13122:13123   */\n      dup3\n        /* \"#utility.yul\":13119:13120   */\n      dup3\n        /* \"#utility.yul\":13115:13124   */\n      add\n        /* \"#utility.yul\":13108:13124   */\n      swap1\n      pop\n        /* \"#utility.yul\":13143:13146   */\n      dup1\n        /* \"#utility.yul\":13140:13141   */\n      dup3\n        /* \"#utility.yul\":13137:13147   */\n      gt\n        /* \"#utility.yul\":13134:13170   */\n      iszero\n      tag_266\n      jumpi\n        /* \"#utility.yul\":13150:13168   */\n      tag_267\n      tag_104\n      jump\t// in\n    tag_267:\n        /* \"#utility.yul\":13134:13170   */\n    tag_266:\n        /* \"#utility.yul\":12986:13177   */\n      swap3\n      swap2\n      pop\n      pop\n      jump\t// out\n        /* \"#utility.yul\":13183:13346   */\n    tag_105:\n        /* \"#utility.yul\":13323:13338   */\n      0x6e6f7420666f756e642e2e2e2e00000000000000000000000000000000000000\n        /* \"#utility.yul\":13319:13320   */\n      0x00\n        /* \"#utility.yul\":13311:13317   */\n      dup3\n        /* \"#utility.yul\":13307:13321   */\n      add\n        /* \"#utility.yul\":13300:13339   */\n      mstore\n        /* \"#utility.yul\":13183:13346   */\n      pop\n      jump\t// out\n        /* \"#utility.yul\":13352:13718   */\n    tag_106:\n        /* \"#utility.yul\":13494:13497   */\n      0x00\n        /* \"#utility.yul\":13515:13582   */\n      tag_270\n        /* \"#utility.yul\":13579:13581   */\n      0x0d\n        /* \"#utility.yul\":13574:13577   */\n      dup4\n        /* \"#utility.yul\":13515:13582   */\n      tag_68\n      jump\t// in\n    tag_270:\n        /* \"#utility.yul\":13508:13582   */\n      swap2\n      pop\n        /* \"#utility.yul\":13591:13684   */\n      tag_271\n        /* \"#utility.yul\":13680:13683   */\n      dup3\n        /* \"#utility.yul\":13591:13684   */\n      tag_105\n      jump\t// in\n    tag_271:\n        /* \"#utility.yul\":13709:13711   */\n      0x20\n        /* \"#utility.yul\":13704:13707   */\n      dup3\n        /* \"#utility.yul\":13700:13712   */\n      add\n        /* \"#utility.yul\":13693:13712   */\n      swap1\n      pop\n        /* \"#utility.yul\":13352:13718   */\n      swap2\n      swap1\n      pop\n      jump\t// out\n        /* \"#utility.yul\":13724:14143   */\n    tag_45:\n        /* \"#utility.yul\":13890:13894   */\n      0x00\n        /* \"#utility.yul\":13928:13930   */\n      0x20\n        /* \"#utility.yul\":13917:13926   */\n      dup3\n        /* \"#utility.yul\":13913:13931   */\n      add\n        /* \"#utility.yul\":13905:13931   */\n      swap1\n      pop\n        /* \"#utility.yul\":13977:13986   */\n      dup2\n        /* \"#utility.yul\":13971:13975   */\n      dup2\n        /* \"#utility.yul\":13967:13987   */\n      sub\n        /* \"#utility.yul\":13963:13964   */\n      0x00\n        /* \"#utility.yul\":13952:13961   */\n      dup4\n        /* \"#utility.yul\":13948:13965   */\n      add\n        /* \"#utility.yul\":13941:13988   */\n      mstore\n        /* \"#utility.yul\":14005:14136   */\n      tag_273\n        /* \"#utility.yul\":14131:14135   */\n      dup2\n        /* \"#utility.yul\":14005:14136   */\n      tag_106\n      jump\t// in\n    tag_273:\n        /* \"#utility.yul\":13997:14136   */\n      swap1\n      pop\n        /* \"#utility.yul\":13724:14143   */\n      swap2\n      swap1\n      pop\n      jump\t// out\n        /* \"#utility.yul\":14149:14329   */\n    tag_48:\n        /* \"#utility.yul\":14197:14274   */\n      0x4e487b7100000000000000000000000000000000000000000000000000000000\n        /* \"#utility.yul\":14194:14195   */\n      0x00\n        /* \"#utility.yul\":14187:14275   */\n      mstore\n        /* \"#utility.yul\":14294:14298   */\n      0x32\n        /* \"#utility.yul\":14291:14292   */\n      0x04\n        /* \"#utility.yul\":14284:14299   */\n      mstore\n        /* \"#utility.yul\":14318:14322   */\n      0x24\n        /* \"#utility.yul\":14315:14316   */\n      0x00\n        /* \"#utility.yul\":14308:14323   */\n      revert\n        /* \"#utility.yul\":14335:14512   */\n    tag_107:\n        /* \"#utility.yul\":14475:14504   */\n      0x616c726561647920766f74656420746869732070726f706f73616c0000000000\n        /* \"#utility.yul\":14471:14472   */\n      0x00\n        /* \"#utility.yul\":14463:14469   */\n      dup3\n        /* \"#utility.yul\":14459:14473   */\n      add\n        /* \"#utility.yul\":14452:14505   */\n      mstore\n        /* \"#utility.yul\":14335:14512   */\n      pop\n      jump\t// out\n        /* \"#utility.yul\":14518:14884   */\n    tag_108:\n        /* \"#utility.yul\":14660:14663   */\n      0x00\n        /* \"#utility.yul\":14681:14748   */\n      tag_277\n        /* \"#utility.yul\":14745:14747   */\n      0x1b\n        /* \"#utility.yul\":14740:14743   */\n      dup4\n        /* \"#utility.yul\":14681:14748   */\n      tag_68\n      jump\t// in\n    tag_277:\n        /* \"#utility.yul\":14674:14748   */\n      swap2\n      pop\n        /* \"#utility.yul\":14757:14850   */\n      tag_278\n        /* \"#utility.yul\":14846:14849   */\n      dup3\n        /* \"#utility.yul\":14757:14850   */\n      tag_107\n      jump\t// in\n    tag_278:\n        /* \"#utility.yul\":14875:14877   */\n      0x20\n        /* \"#utility.yul\":14870:14873   */\n      dup3\n        /* \"#utility.yul\":14866:14878   */\n      add\n        /* \"#utility.yul\":14859:14878   */\n      swap1\n      pop\n        /* \"#utility.yul\":14518:14884   */\n      swap2\n      swap1\n      pop\n      jump\t// out\n        /* \"#utility.yul\":14890:15309   */\n    tag_52:\n        /* \"#utility.yul\":15056:15060   */\n      0x00\n        /* \"#utility.yul\":15094:15096   */\n      0x20\n        /* \"#utility.yul\":15083:15092   */\n      dup3\n        /* \"#utility.yul\":15079:15097   */\n      add\n        /* \"#utility.yul\":15071:15097   */\n      swap1\n      pop\n        /* \"#utility.yul\":15143:15152   */\n      dup2\n        /* \"#utility.yul\":15137:15141   */\n      dup2\n        /* \"#utility.yul\":15133:15153   */\n      sub\n        /* \"#utility.yul\":15129:15130   */\n      0x00\n        /* \"#utility.yul\":15118:15127   */\n      dup4\n        /* \"#utility.yul\":15114:15131   */\n      add\n        /* \"#utility.yul\":15107:15154   */\n      mstore\n        /* \"#utility.yul\":15171:15302   */\n      tag_280\n        /* \"#utility.yul\":15297:15301   */\n      dup2\n        /* \"#utility.yul\":15171:15302   */\n      tag_108\n      jump\t// in\n    tag_280:\n        /* \"#utility.yul\":15163:15302   */\n      swap1\n      pop\n        /* \"#utility.yul\":14890:15309   */\n      swap2\n      swap1\n      pop\n      jump\t// out\n        /* \"#utility.yul\":15315:15474   */\n    tag_109:\n        /* \"#utility.yul\":15455:15466   */\n      0x74696d6564206f75740000000000000000000000000000000000000000000000\n        /* \"#utility.yul\":15451:15452   */\n      0x00\n        /* \"#utility.yul\":15443:15449   */\n      dup3\n        /* \"#utility.yul\":15439:15453   */\n      add\n        /* \"#utility.yul\":15432:15467   */\n      mstore\n        /* \"#utility.yul\":15315:15474   */\n      pop\n      jump\t// out\n        /* \"#utility.yul\":15480:15845   */\n    tag_110:\n        /* \"#utility.yul\":15622:15625   */\n      0x00\n        /* \"#utility.yul\":15643:15709   */\n      tag_283\n        /* \"#utility.yul\":15707:15708   */\n      0x09\n        /* \"#utility.yul\":15702:15705   */\n      dup4\n        /* \"#utility.yul\":15643:15709   */\n      tag_68\n      jump\t// in\n    tag_283:\n        /* \"#utility.yul\":15636:15709   */\n      swap2\n      pop\n        /* \"#utility.yul\":15718:15811   */\n      tag_284\n        /* \"#utility.yul\":15807:15810   */\n      dup3\n        /* \"#utility.yul\":15718:15811   */\n      tag_109\n      jump\t// in\n    tag_284:\n        /* \"#utility.yul\":15836:15838   */\n      0x20\n        /* \"#utility.yul\":15831:15834   */\n      dup3\n        /* \"#utility.yul\":15827:15839   */\n      add\n        /* \"#utility.yul\":15820:15839   */\n      swap1\n      pop\n        /* \"#utility.yul\":15480:15845   */\n      swap2\n      swap1\n      pop\n      jump\t// out\n        /* \"#utility.yul\":15851:16270   */\n    tag_55:\n        /* \"#utility.yul\":16017:16021   */\n      0x00\n        /* \"#utility.yul\":16055:16057   */\n      0x20\n        /* \"#utility.yul\":16044:16053   */\n      dup3\n        /* \"#utility.yul\":16040:16058   */\n      add\n        /* \"#utility.yul\":16032:16058   */\n      swap1\n      pop\n        /* \"#utility.yul\":16104:16113   */\n      dup2\n        /* \"#utility.yul\":16098:16102   */\n      dup2\n        /* \"#utility.yul\":16094:16114   */\n      sub\n        /* \"#utility.yul\":16090:16091   */\n      0x00\n        /* \"#utility.yul\":16079:16088   */\n      dup4\n        /* \"#utility.yul\":16075:16092   */\n      add\n        /* \"#utility.yul\":16068:16115   */\n      mstore\n        /* \"#utility.yul\":16132:16263   */\n      tag_286\n        /* \"#utility.yul\":16258:16262   */\n      dup2\n        /* \"#utility.yul\":16132:16263   */\n      tag_110\n      jump\t// in\n    tag_286:\n        /* \"#utility.yul\":16124:16263   */\n      swap1\n      pop\n        /* \"#utility.yul\":15851:16270   */\n      swap2\n      swap1\n      pop\n      jump\t// out\n        /* \"#utility.yul\":16276:16509   */\n    tag_58:\n        /* \"#utility.yul\":16315:16318   */\n      0x00\n        /* \"#utility.yul\":16338:16362   */\n      tag_288\n        /* \"#utility.yul\":16356:16361   */\n      dup3\n        /* \"#utility.yul\":16338:16362   */\n      tag_64\n      jump\t// in\n    tag_288:\n        /* \"#utility.yul\":16329:16362   */\n      swap2\n      pop\n        /* \"#utility.yul\":16384:16450   */\n      0xffffffffffffffffffffffffffffffffffffffffffffffffffffffffffffffff\n        /* \"#utility.yul\":16377:16382   */\n      dup3\n        /* \"#utility.yul\":16374:16451   */\n      sub\n        /* \"#utility.yul\":16371:16474   */\n      tag_289\n      jumpi\n        /* \"#utility.yul\":16454:16472   */\n      tag_290\n      tag_104\n      jump\t// in\n    tag_290:\n        /* \"#utility.yul\":16371:16474   */\n    tag_289:\n        /* \"#utility.yul\":16501:16502   */\n      0x01\n        /* \"#utility.yul\":16494:16499   */\n      dup3\n        /* \"#utility.yul\":16490:16503   */\n      add\n        /* \"#utility.yul\":16483:16503   */\n      swap1\n      pop\n        /* \"#utility.yul\":16276:16509   */\n      swap2\n      swap1\n      pop\n      jump\t// out\n\n    auxdata: 0xa2646970667358221220d8dc568720a1756739223c4cda4c4eb25bc2e636de7a027589abced0d6c11be364736f6c63430008170033\n}\n",
				"bytecode": {
					"linkReferences": {},
					"object": "608060405234801561000f575f80fd5b50610df78061001d5f395ff3fe608060405234801561000f575f80fd5b506004361061003f575f3560e01c8063013cf08b14610043578063211602af14610079578063c9d27afe14610095575b5f80fd5b61005d60048036038101906100589190610506565b6100b1565b6040516100709796959493929190610609565b60405180910390f35b610093600480360381019061008e91906107b0565b610228565b005b6100af60048036038101906100aa919061086d565b6102ee565b005b5f81815481106100bf575f80fd5b905f5260205f2090600802015f91509050805f0180546100de906108d8565b80601f016020809104026020016040519081016040528092919081815260200182805461010a906108d8565b80156101555780601f1061012c57610100808354040283529160200191610155565b820191905f5260205f20905b81548152906001019060200180831161013857829003601f168201915b50505050509080600101805461016a906108d8565b80601f0160208091040260200160405190810160405280929190818152602001828054610196906108d8565b80156101e15780601f106101b8576101008083540402835291602001916101e1565b820191905f5260205f20905b8154815290600101906020018083116101c457829003601f168201915b505050505090806002015f9054906101000a900473ffffffffffffffffffffffffffffffffffffffff16908060030154908060040154908060050154908060060154905087565b5f8060018160018154018082558091505003905f5260205f209060080201905083815f0190816102589190610aa5565b508281600101908161026a9190610aa5565b5033816002015f6101000a81548173ffffffffffffffffffffffffffffffffffffffff021916908373ffffffffffffffffffffffffffffffffffffffff160217905550428160030181905550603c826102c39190610ba1565b426102ce9190610be2565b81600401819055505f81600501819055505f816006018190555050505050565b5f805490508210610334576040517f08c379a000000000000000000000000000000000000000000000000000000000815260040161032b90610c5f565b60405180910390fd5b5f80838154811061034857610347610c7d565b5b905f5260205f2090600802019050806007015f3373ffffffffffffffffffffffffffffffffffffffff1673ffffffffffffffffffffffffffffffffffffffff1681526020019081526020015f205f9054906101000a900460ff16156103e2576040517f08c379a00000000000000000000000000000000000000000000000000000000081526004016103d990610cf4565b60405180910390fd5b80600401544210610428576040517f08c379a000000000000000000000000000000000000000000000000000000000815260040161041f90610d5c565b60405180910390fd5b811561044c57806005015f81548092919061044290610d7a565b9190505550610466565b806006015f81548092919061046090610d7a565b91905055505b6001816007015f3373ffffffffffffffffffffffffffffffffffffffff1673ffffffffffffffffffffffffffffffffffffffff1681526020019081526020015f205f6101000a81548160ff021916908315150217905550505050565b5f604051905090565b5f80fd5b5f80fd5b5f819050919050565b6104e5816104d3565b81146104ef575f80fd5b50565b5f81359050610500816104dc565b92915050565b5f6020828403121561051b5761051a6104cb565b5b5f610528848285016104f2565b91505092915050565b5f81519050919050565b5f82825260208201905092915050565b5f5b8381101561056857808201518184015260208101905061054d565b5f8484015250505050565b5f601f19601f8301169050919050565b5f61058d82610531565b610597818561053b565b93506105a781856020860161054b565b6105b081610573565b840191505092915050565b5f73ffffffffffffffffffffffffffffffffffffffff82169050919050565b5f6105e4826105bb565b9050919050565b6105f4816105da565b82525050565b610603816104d3565b82525050565b5f60e0820190508181035f830152610621818a610583565b905081810360208301526106358189610583565b905061064460408301886105eb565b61065160608301876105fa565b61065e60808301866105fa565b61066b60a08301856105fa565b61067860c08301846105fa565b98975050505050505050565b5f80fd5b5f80fd5b7f4e487b71000000000000000000000000000000000000000000000000000000005f52604160045260245ffd5b6106c282610573565b810181811067ffffffffffffffff821117156106e1576106e061068c565b5b80604052505050565b5f6106f36104c2565b90506106ff82826106b9565b919050565b5f67ffffffffffffffff82111561071e5761071d61068c565b5b61072782610573565b9050602081019050919050565b828183375f83830152505050565b5f61075461074f84610704565b6106ea565b9050828152602081018484840111156107705761076f610688565b5b61077b848285610734565b509392505050565b5f82601f83011261079757610796610684565b5b81356107a7848260208601610742565b91505092915050565b5f805f606084860312156107c7576107c66104cb565b5b5f84013567ffffffffffffffff8111156107e4576107e36104cf565b5b6107f086828701610783565b935050602084013567ffffffffffffffff811115610811576108106104cf565b5b61081d86828701610783565b925050604061082e868287016104f2565b9150509250925092565b5f8115159050919050565b61084c81610838565b8114610856575f80fd5b50565b5f8135905061086781610843565b92915050565b5f8060408385031215610883576108826104cb565b5b5f610890858286016104f2565b92505060206108a185828601610859565b9150509250929050565b7f4e487b71000000000000000000000000000000000000000000000000000000005f52602260045260245ffd5b5f60028204905060018216806108ef57607f821691505b602082108103610902576109016108ab565b5b50919050565b5f819050815f5260205f209050919050565b5f6020601f8301049050919050565b5f82821b905092915050565b5f600883026109647fffffffffffffffffffffffffffffffffffffffffffffffffffffffffffffffff82610929565b61096e8683610929565b95508019841693508086168417925050509392505050565b5f819050919050565b5f6109a96109a461099f846104d3565b610986565b6104d3565b9050919050565b5f819050919050565b6109c28361098f565b6109d66109ce826109b0565b848454610935565b825550505050565b5f90565b6109ea6109de565b6109f58184846109b9565b505050565b5b81811015610a1857610a0d5f826109e2565b6001810190506109fb565b5050565b601f821115610a5d57610a2e81610908565b610a378461091a565b81016020851015610a46578190505b610a5a610a528561091a565b8301826109fa565b50505b505050565b5f82821c905092915050565b5f610a7d5f1984600802610a62565b1980831691505092915050565b5f610a958383610a6e565b9150826002028217905092915050565b610aae82610531565b67ffffffffffffffff811115610ac757610ac661068c565b5b610ad182546108d8565b610adc828285610a1c565b5f60209050601f831160018114610b0d575f8415610afb578287015190505b610b058582610a8a565b865550610b6c565b601f198416610b1b86610908565b5f5b82811015610b4257848901518255600182019150602085019450602081019050610b1d565b86831015610b5f5784890151610b5b601f891682610a6e565b8355505b6001600288020188555050505b505050505050565b7f4e487b71000000000000000000000000000000000000000000000000000000005f52601160045260245ffd5b5f610bab826104d3565b9150610bb6836104d3565b9250828202610bc4816104d3565b91508282048414831517610bdb57610bda610b74565b5b5092915050565b5f610bec826104d3565b9150610bf7836104d3565b9250828201905080821115610c0f57610c0e610b74565b5b92915050565b7f6e6f7420666f756e642e2e2e2e000000000000000000000000000000000000005f82015250565b5f610c49600d8361053b565b9150610c5482610c15565b602082019050919050565b5f6020820190508181035f830152610c7681610c3d565b9050919050565b7f4e487b71000000000000000000000000000000000000000000000000000000005f52603260045260245ffd5b7f616c726561647920766f74656420746869732070726f706f73616c00000000005f82015250565b5f610cde601b8361053b565b9150610ce982610caa565b602082019050919050565b5f6020820190508181035f830152610d0b81610cd2565b9050919050565b7f74696d6564206f757400000000000000000000000000000000000000000000005f82015250565b5f610d4660098361053b565b9150610d5182610d12565b602082019050919050565b5f6020820190508181035f830152610d7381610d3a565b9050919050565b5f610d84826104d3565b91507fffffffffffffffffffffffffffffffffffffffffffffffffffffffffffffffff8203610db657610db5610b74565b5b60018201905091905056fea2646970667358221220d8dc568720a1756739223c4cda4c4eb25bc2e636de7a027589abced0d6c11be364736f6c63430008170033",
					"opcodes": "PUSH1 0x80 PUSH1 0x40 MSTORE CALLVALUE DUP1 ISZERO PUSH2 0xF JUMPI PUSH0 DUP1 REVERT JUMPDEST POP PUSH2 0xDF7 DUP1 PUSH2 0x1D PUSH0 CODECOPY PUSH0 RETURN INVALID PUSH1 0x80 PUSH1 0x40 MSTORE CALLVALUE DUP1 ISZERO PUSH2 0xF JUMPI PUSH0 DUP1 REVERT JUMPDEST POP PUSH1 0x4 CALLDATASIZE LT PUSH2 0x3F JUMPI PUSH0 CALLDATALOAD PUSH1 0xE0 SHR DUP1 PUSH4 0x13CF08B EQ PUSH2 0x43 JUMPI DUP1 PUSH4 0x211602AF EQ PUSH2 0x79 JUMPI DUP1 PUSH4 0xC9D27AFE EQ PUSH2 0x95 JUMPI JUMPDEST PUSH0 DUP1 REVERT JUMPDEST PUSH2 0x5D PUSH1 0x4 DUP1 CALLDATASIZE SUB DUP2 ADD SWAP1 PUSH2 0x58 SWAP2 SWAP1 PUSH2 0x506 JUMP JUMPDEST PUSH2 0xB1 JUMP JUMPDEST PUSH1 0x40 MLOAD PUSH2 0x70 SWAP8 SWAP7 SWAP6 SWAP5 SWAP4 SWAP3 SWAP2 SWAP1 PUSH2 0x609 JUMP JUMPDEST PUSH1 0x40 MLOAD DUP1 SWAP2 SUB SWAP1 RETURN JUMPDEST PUSH2 0x93 PUSH1 0x4 DUP1 CALLDATASIZE SUB DUP2 ADD SWAP1 PUSH2 0x8E SWAP2 SWAP1 PUSH2 0x7B0 JUMP JUMPDEST PUSH2 0x228 JUMP JUMPDEST STOP JUMPDEST PUSH2 0xAF PUSH1 0x4 DUP1 CALLDATASIZE SUB DUP2 ADD SWAP1 PUSH2 0xAA SWAP2 SWAP1 PUSH2 0x86D JUMP JUMPDEST PUSH2 0x2EE JUMP JUMPDEST STOP JUMPDEST PUSH0 DUP2 DUP2 SLOAD DUP2 LT PUSH2 0xBF JUMPI PUSH0 DUP1 REVERT JUMPDEST SWAP1 PUSH0 MSTORE PUSH1 0x20 PUSH0 KECCAK256 SWAP1 PUSH1 0x8 MUL ADD PUSH0 SWAP2 POP SWAP1 POP DUP1 PUSH0 ADD DUP1 SLOAD PUSH2 0xDE SWAP1 PUSH2 0x8D8 JUMP JUMPDEST DUP1 PUSH1 0x1F ADD PUSH1 0x20 DUP1 SWAP2 DIV MUL PUSH1 0x20 ADD PUSH1 0x40 MLOAD SWAP1 DUP2 ADD PUSH1 0x40 MSTORE DUP1 SWAP3 SWAP2 SWAP1 DUP2 DUP2 MSTORE PUSH1 0x20 ADD DUP3 DUP1 SLOAD PUSH2 0x10A SWAP1 PUSH2 0x8D8 JUMP JUMPDEST DUP1 ISZERO PUSH2 0x155 JUMPI DUP1 PUSH1 0x1F LT PUSH2 0x12C JUMPI PUSH2 0x100 DUP1 DUP4 SLOAD DIV MUL DUP4 MSTORE SWAP2 PUSH1 0x20 ADD SWAP2 PUSH2 0x155 JUMP JUMPDEST DUP3 ADD SWAP2 SWAP1 PUSH0 MSTORE PUSH1 0x20 PUSH0 KECCAK256 SWAP1 JUMPDEST DUP2 SLOAD DUP2 MSTORE SWAP1 PUSH1 0x1 ADD SWAP1 PUSH1 0x20 ADD DUP1 DUP4 GT PUSH2 0x138 JUMPI DUP3 SWAP1 SUB PUSH1 0x1F AND DUP3 ADD SWAP2 JUMPDEST POP POP POP POP POP SWAP1 DUP1 PUSH1 0x1 ADD DUP1 SLOAD PUSH2 0x16A SWAP1 PUSH2 0x8D8 JUMP JUMPDEST DUP1 PUSH1 0x1F ADD PUSH1 0x20 DUP1 SWAP2 DIV MUL PUSH1 0x20 ADD PUSH1 0x40 MLOAD SWAP1 DUP2 ADD PUSH1 0x40 MSTORE DUP1 SWAP3 SWAP2 SWAP1 DUP2 DUP2 MSTORE PUSH1 0x20 ADD DUP3 DUP1 SLOAD PUSH2 0x196 SWAP1 PUSH2 0x8D8 JUMP JUMPDEST DUP1 ISZERO PUSH2 0x1E1 JUMPI DUP1 PUSH1 0x1F LT PUSH2 0x1B8 JUMPI PUSH2 0x100 DUP1 DUP4 SLOAD DIV MUL DUP4 MSTORE SWAP2 PUSH1 0x20 ADD SWAP2 PUSH2 0x1E1 JUMP JUMPDEST DUP3 ADD SWAP2 SWAP1 PUSH0 MSTORE PUSH1 0x20 PUSH0 KECCAK256 SWAP1 JUMPDEST DUP2 SLOAD DUP2 MSTORE SWAP1 PUSH1 0x1 ADD SWAP1 PUSH1 0x20 ADD DUP1 DUP4 GT PUSH2 0x1C4 JUMPI DUP3 SWAP1 SUB PUSH1 0x1F AND DUP3 ADD SWAP2 JUMPDEST POP POP POP POP POP SWAP1 DUP1 PUSH1 0x2 ADD PUSH0 SWAP1 SLOAD SWAP1 PUSH2 0x100 EXP SWAP1 DIV PUSH20 0xFFFFFFFFFFFFFFFFFFFFFFFFFFFFFFFFFFFFFFFF AND SWAP1 DUP1 PUSH1 0x3 ADD SLOAD SWAP1 DUP1 PUSH1 0x4 ADD SLOAD SWAP1 DUP1 PUSH1 0x5 ADD SLOAD SWAP1 DUP1 PUSH1 0x6 ADD SLOAD SWAP1 POP DUP8 JUMP JUMPDEST PUSH0 DUP1 PUSH1 0x1 DUP2 PUSH1 0x1 DUP2 SLOAD ADD DUP1 DUP3 SSTORE DUP1 SWAP2 POP POP SUB SWAP1 PUSH0 MSTORE PUSH1 0x20 PUSH0 KECCAK256 SWAP1 PUSH1 0x8 MUL ADD SWAP1 POP DUP4 DUP2 PUSH0 ADD SWAP1 DUP2 PUSH2 0x258 SWAP2 SWAP1 PUSH2 0xAA5 JUMP JUMPDEST POP DUP3 DUP2 PUSH1 0x1 ADD SWAP1 DUP2 PUSH2 0x26A SWAP2 SWAP1 PUSH2 0xAA5 JUMP JUMPDEST POP CALLER DUP2 PUSH1 0x2 ADD PUSH0 PUSH2 0x100 EXP DUP2 SLOAD DUP2 PUSH20 0xFFFFFFFFFFFFFFFFFFFFFFFFFFFFFFFFFFFFFFFF MUL NOT AND SWAP1 DUP4 PUSH20 0xFFFFFFFFFFFFFFFFFFFFFFFFFFFFFFFFFFFFFFFF AND MUL OR SWAP1 SSTORE POP TIMESTAMP DUP2 PUSH1 0x3 ADD DUP2 SWAP1 SSTORE POP PUSH1 0x3C DUP3 PUSH2 0x2C3 SWAP2 SWAP1 PUSH2 0xBA1 JUMP JUMPDEST TIMESTAMP PUSH2 0x2CE SWAP2 SWAP1 PUSH2 0xBE2 JUMP JUMPDEST DUP2 PUSH1 0x4 ADD DUP2 SWAP1 SSTORE POP PUSH0 DUP2 PUSH1 0x5 ADD DUP2 SWAP1 SSTORE POP PUSH0 DUP2 PUSH1 0x6 ADD DUP2 SWAP1 SSTORE POP POP POP POP POP JUMP JUMPDEST PUSH0 DUP1 SLOAD SWAP1 POP DUP3 LT PUSH2 0x334 JUMPI PUSH1 0x40 MLOAD PUSH32 0x8C379A000000000000000000000000000000000000000000000000000000000 DUP2 MSTORE PUSH1 0x4 ADD PUSH2 0x32B SWAP1 PUSH2 0xC5F JUMP JUMPDEST PUSH1 0x40 MLOAD DUP1 SWAP2 SUB SWAP1 REVERT JUMPDEST PUSH0 DUP1 DUP4 DUP2 SLOAD DUP2 LT PUSH2 0x348 JUMPI PUSH2 0x347 PUSH2 0xC7D JUMP JUMPDEST JUMPDEST SWAP1 PUSH0 MSTORE PUSH1 0x20 PUSH0 KECCAK256 SWAP1 PUSH1 0x8 MUL ADD SWAP1 POP DUP1 PUSH1 0x7 ADD PUSH0 CALLER PUSH20 0xFFFFFFFFFFFFFFFFFFFFFFFFFFFFFFFFFFFFFFFF AND PUSH20 0xFFFFFFFFFFFFFFFFFFFFFFFFFFFFFFFFFFFFFFFF AND DUP2 MSTORE PUSH1 0x20 ADD SWAP1 DUP2 MSTORE PUSH1 0x20 ADD PUSH0 KECCAK256 PUSH0 SWAP1 SLOAD SWAP1 PUSH2 0x100 EXP SWAP1 DIV PUSH1 0xFF AND ISZERO PUSH2 0x3E2 JUMPI PUSH1 0x40 MLOAD PUSH32 0x8C379A000000000000000000000000000000000000000000000000000000000 DUP2 MSTORE PUSH1 0x4 ADD PUSH2 0x3D9 SWAP1 PUSH2 0xCF4 JUMP JUMPDEST PUSH1 0x40 MLOAD DUP1 SWAP2 SUB SWAP1 REVERT JUMPDEST DUP1 PUSH1 0x4 ADD SLOAD TIMESTAMP LT PUSH2 0x428 JUMPI PUSH1 0x40 MLOAD PUSH32 0x8C379A000000000000000000000000000000000000000000000000000000000 DUP2 MSTORE PUSH1 0x4 ADD PUSH2 0x41F SWAP1 PUSH2 0xD5C JUMP JUMPDEST PUSH1 0x40 MLOAD DUP1 SWAP2 SUB SWAP1 REVERT JUMPDEST DUP2 ISZERO PUSH2 0x44C JUMPI DUP1 PUSH1 0x5 ADD PUSH0 DUP2 SLOAD DUP1 SWAP3 SWAP2 SWAP1 PUSH2 0x442 SWAP1 PUSH2 0xD7A JUMP JUMPDEST SWAP2 SWAP1 POP SSTORE POP PUSH2 0x466 JUMP JUMPDEST DUP1 PUSH1 0x6 ADD PUSH0 DUP2 SLOAD DUP1 SWAP3 SWAP2 SWAP1 PUSH2 0x460 SWAP1 PUSH2 0xD7A JUMP JUMPDEST SWAP2 SWAP1 POP SSTORE POP JUMPDEST PUSH1 0x1 DUP2 PUSH1 0x7 ADD PUSH0 CALLER PUSH20 0xFFFFFFFFFFFFFFFFFFFFFFFFFFFFFFFFFFFFFFFF AND PUSH20 0xFFFFFFFFFFFFFFFFFFFFFFFFFFFFFFFFFFFFFFFF AND DUP2 MSTORE PUSH1 0x20 ADD SWAP1 DUP2 MSTORE PUSH1 0x20 ADD PUSH0 KECCAK256 PUSH0 PUSH2 0x100 EXP DUP2 SLOAD DUP2 PUSH1 0xFF MUL NOT AND SWAP1 DUP4 ISZERO ISZERO MUL OR SWAP1 SSTORE POP POP POP POP JUMP JUMPDEST PUSH0 PUSH1 0x40 MLOAD SWAP1 POP SWAP1 JUMP JUMPDEST PUSH0 DUP1 REVERT JUMPDEST PUSH0 DUP1 REVERT JUMPDEST PUSH0 DUP2 SWAP1 POP SWAP2 SWAP1 POP JUMP JUMPDEST PUSH2 0x4E5 DUP2 PUSH2 0x4D3 JUMP JUMPDEST DUP2 EQ PUSH2 0x4EF JUMPI PUSH0 DUP1 REVERT JUMPDEST POP JUMP JUMPDEST PUSH0 DUP2 CALLDATALOAD SWAP1 POP PUSH2 0x500 DUP2 PUSH2 0x4DC JUMP JUMPDEST SWAP3 SWAP2 POP POP JUMP JUMPDEST PUSH0 PUSH1 0x20 DUP3 DUP5 SUB SLT ISZERO PUSH2 0x51B JUMPI PUSH2 0x51A PUSH2 0x4CB JUMP JUMPDEST JUMPDEST PUSH0 PUSH2 0x528 DUP5 DUP3 DUP6 ADD PUSH2 0x4F2 JUMP JUMPDEST SWAP2 POP POP SWAP3 SWAP2 POP POP JUMP JUMPDEST PUSH0 DUP2 MLOAD SWAP1 POP SWAP2 SWAP1 POP JUMP JUMPDEST PUSH0 DUP3 DUP3 MSTORE PUSH1 0x20 DUP3 ADD SWAP1 POP SWAP3 SWAP2 POP POP JUMP JUMPDEST PUSH0 JUMPDEST DUP4 DUP2 LT ISZERO PUSH2 0x568 JUMPI DUP1 DUP3 ADD MLOAD DUP2 DUP5 ADD MSTORE PUSH1 0x20 DUP2 ADD SWAP1 POP PUSH2 0x54D JUMP JUMPDEST PUSH0 DUP5 DUP5 ADD MSTORE POP POP POP POP JUMP JUMPDEST PUSH0 PUSH1 0x1F NOT PUSH1 0x1F DUP4 ADD AND SWAP1 POP SWAP2 SWAP1 POP JUMP JUMPDEST PUSH0 PUSH2 0x58D DUP3 PUSH2 0x531 JUMP JUMPDEST PUSH2 0x597 DUP2 DUP6 PUSH2 0x53B JUMP JUMPDEST SWAP4 POP PUSH2 0x5A7 DUP2 DUP6 PUSH1 0x20 DUP7 ADD PUSH2 0x54B JUMP JUMPDEST PUSH2 0x5B0 DUP2 PUSH2 0x573 JUMP JUMPDEST DUP5 ADD SWAP2 POP POP SWAP3 SWAP2 POP POP JUMP JUMPDEST PUSH0 PUSH20 0xFFFFFFFFFFFFFFFFFFFFFFFFFFFFFFFFFFFFFFFF DUP3 AND SWAP1 POP SWAP2 SWAP1 POP JUMP JUMPDEST PUSH0 PUSH2 0x5E4 DUP3 PUSH2 0x5BB JUMP JUMPDEST SWAP1 POP SWAP2 SWAP1 POP JUMP JUMPDEST PUSH2 0x5F4 DUP2 PUSH2 0x5DA JUMP JUMPDEST DUP3 MSTORE POP POP JUMP JUMPDEST PUSH2 0x603 DUP2 PUSH2 0x4D3 JUMP JUMPDEST DUP3 MSTORE POP POP JUMP JUMPDEST PUSH0 PUSH1 0xE0 DUP3 ADD SWAP1 POP DUP2 DUP2 SUB PUSH0 DUP4 ADD MSTORE PUSH2 0x621 DUP2 DUP11 PUSH2 0x583 JUMP JUMPDEST SWAP1 POP DUP2 DUP2 SUB PUSH1 0x20 DUP4 ADD MSTORE PUSH2 0x635 DUP2 DUP10 PUSH2 0x583 JUMP JUMPDEST SWAP1 POP PUSH2 0x644 PUSH1 0x40 DUP4 ADD DUP9 PUSH2 0x5EB JUMP JUMPDEST PUSH2 0x651 PUSH1 0x60 DUP4 ADD DUP8 PUSH2 0x5FA JUMP JUMPDEST PUSH2 0x65E PUSH1 0x80 DUP4 ADD DUP7 PUSH2 0x5FA JUMP JUMPDEST PUSH2 0x66B PUSH1 0xA0 DUP4 ADD DUP6 PUSH2 0x5FA JUMP JUMPDEST PUSH2 0x678 PUSH1 0xC0 DUP4 ADD DUP5 PUSH2 0x5FA JUMP JUMPDEST SWAP9 SWAP8 POP POP POP POP POP POP POP POP JUMP JUMPDEST PUSH0 DUP1 REVERT JUMPDEST PUSH0 DUP1 REVERT JUMPDEST PUSH32 0x4E487B7100000000000000000000000000000000000000000000000000000000 PUSH0 MSTORE PUSH1 0x41 PUSH1 0x4 MSTORE PUSH1 0x24 PUSH0 REVERT JUMPDEST PUSH2 0x6C2 DUP3 PUSH2 0x573 JUMP JUMPDEST DUP2 ADD DUP2 DUP2 LT PUSH8 0xFFFFFFFFFFFFFFFF DUP3 GT OR ISZERO PUSH2 0x6E1 JUMPI PUSH2 0x6E0 PUSH2 0x68C JUMP JUMPDEST JUMPDEST DUP1 PUSH1 0x40 MSTORE POP POP POP JUMP JUMPDEST PUSH0 PUSH2 0x6F3 PUSH2 0x4C2 JUMP JUMPDEST SWAP1 POP PUSH2 0x6FF DUP3 DUP3 PUSH2 0x6B9 JUMP JUMPDEST SWAP2 SWAP1 POP JUMP JUMPDEST PUSH0 PUSH8 0xFFFFFFFFFFFFFFFF DUP3 GT ISZERO PUSH2 0x71E JUMPI PUSH2 0x71D PUSH2 0x68C JUMP JUMPDEST JUMPDEST PUSH2 0x727 DUP3 PUSH2 0x573 JUMP JUMPDEST SWAP1 POP PUSH1 0x20 DUP2 ADD SWAP1 POP SWAP2 SWAP1 POP JUMP JUMPDEST DUP3 DUP2 DUP4 CALLDATACOPY PUSH0 DUP4 DUP4 ADD MSTORE POP POP POP JUMP JUMPDEST PUSH0 PUSH2 0x754 PUSH2 0x74F DUP5 PUSH2 0x704 JUMP JUMPDEST PUSH2 0x6EA JUMP JUMPDEST SWAP1 POP DUP3 DUP2 MSTORE PUSH1 0x20 DUP2 ADD DUP5 DUP5 DUP5 ADD GT ISZERO PUSH2 0x770 JUMPI PUSH2 0x76F PUSH2 0x688 JUMP JUMPDEST JUMPDEST PUSH2 0x77B DUP5 DUP3 DUP6 PUSH2 0x734 JUMP JUMPDEST POP SWAP4 SWAP3 POP POP POP JUMP JUMPDEST PUSH0 DUP3 PUSH1 0x1F DUP4 ADD SLT PUSH2 0x797 JUMPI PUSH2 0x796 PUSH2 0x684 JUMP JUMPDEST JUMPDEST DUP2 CALLDATALOAD PUSH2 0x7A7 DUP5 DUP3 PUSH1 0x20 DUP7 ADD PUSH2 0x742 JUMP JUMPDEST SWAP2 POP POP SWAP3 SWAP2 POP POP JUMP JUMPDEST PUSH0 DUP1 PUSH0 PUSH1 0x60 DUP5 DUP7 SUB SLT ISZERO PUSH2 0x7C7 JUMPI PUSH2 0x7C6 PUSH2 0x4CB JUMP JUMPDEST JUMPDEST PUSH0 DUP5 ADD CALLDATALOAD PUSH8 0xFFFFFFFFFFFFFFFF DUP2 GT ISZERO PUSH2 0x7E4 JUMPI PUSH2 0x7E3 PUSH2 0x4CF JUMP JUMPDEST JUMPDEST PUSH2 0x7F0 DUP7 DUP3 DUP8 ADD PUSH2 0x783 JUMP JUMPDEST SWAP4 POP POP PUSH1 0x20 DUP5 ADD CALLDATALOAD PUSH8 0xFFFFFFFFFFFFFFFF DUP2 GT ISZERO PUSH2 0x811 JUMPI PUSH2 0x810 PUSH2 0x4CF JUMP JUMPDEST JUMPDEST PUSH2 0x81D DUP7 DUP3 DUP8 ADD PUSH2 0x783 JUMP JUMPDEST SWAP3 POP POP PUSH1 0x40 PUSH2 0x82E DUP7 DUP3 DUP8 ADD PUSH2 0x4F2 JUMP JUMPDEST SWAP2 POP POP SWAP3 POP SWAP3 POP SWAP3 JUMP JUMPDEST PUSH0 DUP2 ISZERO ISZERO SWAP1 POP SWAP2 SWAP1 POP JUMP JUMPDEST PUSH2 0x84C DUP2 PUSH2 0x838 JUMP JUMPDEST DUP2 EQ PUSH2 0x856 JUMPI PUSH0 DUP1 REVERT JUMPDEST POP JUMP JUMPDEST PUSH0 DUP2 CALLDATALOAD SWAP1 POP PUSH2 0x867 DUP2 PUSH2 0x843 JUMP JUMPDEST SWAP3 SWAP2 POP POP JUMP JUMPDEST PUSH0 DUP1 PUSH1 0x40 DUP4 DUP6 SUB SLT ISZERO PUSH2 0x883 JUMPI PUSH2 0x882 PUSH2 0x4CB JUMP JUMPDEST JUMPDEST PUSH0 PUSH2 0x890 DUP6 DUP3 DUP7 ADD PUSH2 0x4F2 JUMP JUMPDEST SWAP3 POP POP PUSH1 0x20 PUSH2 0x8A1 DUP6 DUP3 DUP7 ADD PUSH2 0x859 JUMP JUMPDEST SWAP2 POP POP SWAP3 POP SWAP3 SWAP1 POP JUMP JUMPDEST PUSH32 0x4E487B7100000000000000000000000000000000000000000000000000000000 PUSH0 MSTORE PUSH1 0x22 PUSH1 0x4 MSTORE PUSH1 0x24 PUSH0 REVERT JUMPDEST PUSH0 PUSH1 0x2 DUP3 DIV SWAP1 POP PUSH1 0x1 DUP3 AND DUP1 PUSH2 0x8EF JUMPI PUSH1 0x7F DUP3 AND SWAP2 POP JUMPDEST PUSH1 0x20 DUP3 LT DUP2 SUB PUSH2 0x902 JUMPI PUSH2 0x901 PUSH2 0x8AB JUMP JUMPDEST JUMPDEST POP SWAP2 SWAP1 POP JUMP JUMPDEST PUSH0 DUP2 SWAP1 POP DUP2 PUSH0 MSTORE PUSH1 0x20 PUSH0 KECCAK256 SWAP1 POP SWAP2 SWAP1 POP JUMP JUMPDEST PUSH0 PUSH1 0x20 PUSH1 0x1F DUP4 ADD DIV SWAP1 POP SWAP2 SWAP1 POP JUMP JUMPDEST PUSH0 DUP3 DUP3 SHL SWAP1 POP SWAP3 SWAP2 POP POP JUMP JUMPDEST PUSH0 PUSH1 0x8 DUP4 MUL PUSH2 0x964 PUSH32 0xFFFFFFFFFFFFFFFFFFFFFFFFFFFFFFFFFFFFFFFFFFFFFFFFFFFFFFFFFFFFFFFF DUP3 PUSH2 0x929 JUMP JUMPDEST PUSH2 0x96E DUP7 DUP4 PUSH2 0x929 JUMP JUMPDEST SWAP6 POP DUP1 NOT DUP5 AND SWAP4 POP DUP1 DUP7 AND DUP5 OR SWAP3 POP POP POP SWAP4 SWAP3 POP POP POP JUMP JUMPDEST PUSH0 DUP2 SWAP1 POP SWAP2 SWAP1 POP JUMP JUMPDEST PUSH0 PUSH2 0x9A9 PUSH2 0x9A4 PUSH2 0x99F DUP5 PUSH2 0x4D3 JUMP JUMPDEST PUSH2 0x986 JUMP JUMPDEST PUSH2 0x4D3 JUMP JUMPDEST SWAP1 POP SWAP2 SWAP1 POP JUMP JUMPDEST PUSH0 DUP2 SWAP1 POP SWAP2 SWAP1 POP JUMP JUMPDEST PUSH2 0x9C2 DUP4 PUSH2 0x98F JUMP JUMPDEST PUSH2 0x9D6 PUSH2 0x9CE DUP3 PUSH2 0x9B0 JUMP JUMPDEST DUP5 DUP5 SLOAD PUSH2 0x935 JUMP JUMPDEST DUP3 SSTORE POP POP POP POP JUMP JUMPDEST PUSH0 SWAP1 JUMP JUMPDEST PUSH2 0x9EA PUSH2 0x9DE JUMP JUMPDEST PUSH2 0x9F5 DUP2 DUP5 DUP5 PUSH2 0x9B9 JUMP JUMPDEST POP POP POP JUMP JUMPDEST JUMPDEST DUP2 DUP2 LT ISZERO PUSH2 0xA18 JUMPI PUSH2 0xA0D PUSH0 DUP3 PUSH2 0x9E2 JUMP JUMPDEST PUSH1 0x1 DUP2 ADD SWAP1 POP PUSH2 0x9FB JUMP JUMPDEST POP POP JUMP JUMPDEST PUSH1 0x1F DUP3 GT ISZERO PUSH2 0xA5D JUMPI PUSH2 0xA2E DUP2 PUSH2 0x908 JUMP JUMPDEST PUSH2 0xA37 DUP5 PUSH2 0x91A JUMP JUMPDEST DUP2 ADD PUSH1 0x20 DUP6 LT ISZERO PUSH2 0xA46 JUMPI DUP2 SWAP1 POP JUMPDEST PUSH2 0xA5A PUSH2 0xA52 DUP6 PUSH2 0x91A JUMP JUMPDEST DUP4 ADD DUP3 PUSH2 0x9FA JUMP JUMPDEST POP POP JUMPDEST POP POP POP JUMP JUMPDEST PUSH0 DUP3 DUP3 SHR SWAP1 POP SWAP3 SWAP2 POP POP JUMP JUMPDEST PUSH0 PUSH2 0xA7D PUSH0 NOT DUP5 PUSH1 0x8 MUL PUSH2 0xA62 JUMP JUMPDEST NOT DUP1 DUP4 AND SWAP2 POP POP SWAP3 SWAP2 POP POP JUMP JUMPDEST PUSH0 PUSH2 0xA95 DUP4 DUP4 PUSH2 0xA6E JUMP JUMPDEST SWAP2 POP DUP3 PUSH1 0x2 MUL DUP3 OR SWAP1 POP SWAP3 SWAP2 POP POP JUMP JUMPDEST PUSH2 0xAAE DUP3 PUSH2 0x531 JUMP JUMPDEST PUSH8 0xFFFFFFFFFFFFFFFF DUP2 GT ISZERO PUSH2 0xAC7 JUMPI PUSH2 0xAC6 PUSH2 0x68C JUMP JUMPDEST JUMPDEST PUSH2 0xAD1 DUP3 SLOAD PUSH2 0x8D8 JUMP JUMPDEST PUSH2 0xADC DUP3 DUP3 DUP6 PUSH2 0xA1C JUMP JUMPDEST PUSH0 PUSH1 0x20 SWAP1 POP PUSH1 0x1F DUP4 GT PUSH1 0x1 DUP2 EQ PUSH2 0xB0D JUMPI PUSH0 DUP5 ISZERO PUSH2 0xAFB JUMPI DUP3 DUP8 ADD MLOAD SWAP1 POP JUMPDEST PUSH2 0xB05 DUP6 DUP3 PUSH2 0xA8A JUMP JUMPDEST DUP7 SSTORE POP PUSH2 0xB6C JUMP JUMPDEST PUSH1 0x1F NOT DUP5 AND PUSH2 0xB1B DUP7 PUSH2 0x908 JUMP JUMPDEST PUSH0 JUMPDEST DUP3 DUP2 LT ISZERO PUSH2 0xB42 JUMPI DUP5 DUP10 ADD MLOAD DUP3 SSTORE PUSH1 0x1 DUP3 ADD SWAP2 POP PUSH1 0x20 DUP6 ADD SWAP5 POP PUSH1 0x20 DUP2 ADD SWAP1 POP PUSH2 0xB1D JUMP JUMPDEST DUP7 DUP4 LT ISZERO PUSH2 0xB5F JUMPI DUP5 DUP10 ADD MLOAD PUSH2 0xB5B PUSH1 0x1F DUP10 AND DUP3 PUSH2 0xA6E JUMP JUMPDEST DUP4 SSTORE POP JUMPDEST PUSH1 0x1 PUSH1 0x2 DUP9 MUL ADD DUP9 SSTORE POP POP POP JUMPDEST POP POP POP POP POP POP JUMP JUMPDEST PUSH32 0x4E487B7100000000000000000000000000000000000000000000000000000000 PUSH0 MSTORE PUSH1 0x11 PUSH1 0x4 MSTORE PUSH1 0x24 PUSH0 REVERT JUMPDEST PUSH0 PUSH2 0xBAB DUP3 PUSH2 0x4D3 JUMP JUMPDEST SWAP2 POP PUSH2 0xBB6 DUP4 PUSH2 0x4D3 JUMP JUMPDEST SWAP3 POP DUP3 DUP3 MUL PUSH2 0xBC4 DUP2 PUSH2 0x4D3 JUMP JUMPDEST SWAP2 POP DUP3 DUP3 DIV DUP5 EQ DUP4 ISZERO OR PUSH2 0xBDB JUMPI PUSH2 0xBDA PUSH2 0xB74 JUMP JUMPDEST JUMPDEST POP SWAP3 SWAP2 POP POP JUMP JUMPDEST PUSH0 PUSH2 0xBEC DUP3 PUSH2 0x4D3 JUMP JUMPDEST SWAP2 POP PUSH2 0xBF7 DUP4 PUSH2 0x4D3 JUMP JUMPDEST SWAP3 POP DUP3 DUP3 ADD SWAP1 POP DUP1 DUP3 GT ISZERO PUSH2 0xC0F JUMPI PUSH2 0xC0E PUSH2 0xB74 JUMP JUMPDEST JUMPDEST SWAP3 SWAP2 POP POP JUMP JUMPDEST PUSH32 0x6E6F7420666F756E642E2E2E2E00000000000000000000000000000000000000 PUSH0 DUP3 ADD MSTORE POP JUMP JUMPDEST PUSH0 PUSH2 0xC49 PUSH1 0xD DUP4 PUSH2 0x53B JUMP JUMPDEST SWAP2 POP PUSH2 0xC54 DUP3 PUSH2 0xC15 JUMP JUMPDEST PUSH1 0x20 DUP3 ADD SWAP1 POP SWAP2 SWAP1 POP JUMP JUMPDEST PUSH0 PUSH1 0x20 DUP3 ADD SWAP1 POP DUP2 DUP2 SUB PUSH0 DUP4 ADD MSTORE PUSH2 0xC76 DUP2 PUSH2 0xC3D JUMP JUMPDEST SWAP1 POP SWAP2 SWAP1 POP JUMP JUMPDEST PUSH32 0x4E487B7100000000000000000000000000000000000000000000000000000000 PUSH0 MSTORE PUSH1 0x32 PUSH1 0x4 MSTORE PUSH1 0x24 PUSH0 REVERT JUMPDEST PUSH32 0x616C726561647920766F74656420746869732070726F706F73616C0000000000 PUSH0 DUP3 ADD MSTORE POP JUMP JUMPDEST PUSH0 PUSH2 0xCDE PUSH1 0x1B DUP4 PUSH2 0x53B JUMP JUMPDEST SWAP2 POP PUSH2 0xCE9 DUP3 PUSH2 0xCAA JUMP JUMPDEST PUSH1 0x20 DUP3 ADD SWAP1 POP SWAP2 SWAP1 POP JUMP JUMPDEST PUSH0 PUSH1 0x20 DUP3 ADD SWAP1 POP DUP2 DUP2 SUB PUSH0 DUP4 ADD MSTORE PUSH2 0xD0B DUP2 PUSH2 0xCD2 JUMP JUMPDEST SWAP1 POP SWAP2 SWAP1 POP JUMP JUMPDEST PUSH32 0x74696D6564206F75740000000000000000000000000000000000000000000000 PUSH0 DUP3 ADD MSTORE POP JUMP JUMPDEST PUSH0 PUSH2 0xD46 PUSH1 0x9 DUP4 PUSH2 0x53B JUMP JUMPDEST SWAP2 POP PUSH2 0xD51 DUP3 PUSH2 0xD12 JUMP JUMPDEST PUSH1 0x20 DUP3 ADD SWAP1 POP SWAP2 SWAP1 POP JUMP JUMPDEST PUSH0 PUSH1 0x20 DUP3 ADD SWAP1 POP DUP2 DUP2 SUB PUSH0 DUP4 ADD MSTORE PUSH2 0xD73 DUP2 PUSH2 0xD3A JUMP JUMPDEST SWAP1 POP SWAP2 SWAP1 POP JUMP JUMPDEST PUSH0 PUSH2 0xD84 DUP3 PUSH2 0x4D3 JUMP JUMPDEST SWAP2 POP PUSH32 0xFFFFFFFFFFFFFFFFFFFFFFFFFFFFFFFFFFFFFFFFFFFFFFFFFFFFFFFFFFFFFFFF DUP3 SUB PUSH2 0xDB6 JUMPI PUSH2 0xDB5 PUSH2 0xB74 JUMP JUMPDEST JUMPDEST PUSH1 0x1 DUP3 ADD SWAP1 POP SWAP2 SWAP1 POP JUMP INVALID LOG2 PUSH5 0x6970667358 0x22 SLT KECCAK256 0xD8 0xDC JUMP DUP8 KECCAK256 LOG1 PUSH22 0x6739223C4CDA4C4EB25BC2E636DE7A027589ABCED0D6 0xC1 SHL 0xE3 PUSH5 0x736F6C6343 STOP ADDMOD OR STOP CALLER "
				},
				"gasEstimates": {
					"creation": {
						"codeDepositCost": "715000",
						"executionCost": "745",
						"totalCost": "715745"
					},
					"external": {
						"addProposal(string,string,uint256)": "infinite",
						"proposals(uint256)": "infinite",
						"vote(uint256,bool)": "infinite"
					}
				},
				"methodIdentifiers": {
					"addProposal(string,string,uint256)": "211602af",
					"proposals(uint256)": "013cf08b",
					"vote(uint256,bool)": "c9d27afe"
				}
			},
			"storageLayout": {
				"storage": [
					{
						"astId": 24,
						"contract": "contract/votig.sol:Voting",
						"label": "proposals",
						"offset": 0,
						"slot": "0",
						"type": "t_array(t_struct(Proposal)20_storage)dyn_storage"
					}
				],
				"types": {
					"t_address": {
						"encoding": "inplace",
						"label": "address",
						"numberOfBytes": "20"
					},
					"t_array(t_struct(Proposal)20_storage)dyn_storage": {
						"base": "t_struct(Proposal)20_storage",
						"encoding": "dynamic_array",
						"label": "struct Voting.Proposal[]",
						"numberOfBytes": "32"
					},
					"t_bool": {
						"encoding": "inplace",
						"label": "bool",
						"numberOfBytes": "1"
					},
					"t_mapping(t_address,t_bool)": {
						"encoding": "mapping",
						"key": "t_address",
						"label": "mapping(address => bool)",
						"numberOfBytes": "32",
						"value": "t_bool"
					},
					"t_string_storage": {
						"encoding": "bytes",
						"label": "string",
						"numberOfBytes": "32"
					},
					"t_struct(Proposal)20_storage": {
						"encoding": "inplace",
						"label": "struct Voting.Proposal",
						"members": [
							{
								"astId": 3,
								"contract": "contract/votig.sol:Voting",
								"label": "name",
								"offset": 0,
								"slot": "0",
								"type": "t_string_storage"
							},
							{
								"astId": 5,
								"contract": "contract/votig.sol:Voting",
								"label": "description",
								"offset": 0,
								"slot": "1",
								"type": "t_string_storage"
							},
							{
								"astId": 7,
								"contract": "contract/votig.sol:Voting",
								"label": "creator",
								"offset": 0,
								"slot": "2",
								"type": "t_address"
							},
							{
								"astId": 9,
								"contract": "contract/votig.sol:Voting",
								"label": "createTime",
								"offset": 0,
								"slot": "3",
								"type": "t_uint256"
							},
							{
								"astId": 11,
								"contract": "contract/votig.sol:Voting",
								"label": "endTime",
								"offset": 0,
								"slot": "4",
								"type": "t_uint256"
							},
							{
								"astId": 13,
								"contract": "contract/votig.sol:Voting",
								"label": "yesVotes",
								"offset": 0,
								"slot": "5",
								"type": "t_uint256"
							},
							{
								"astId": 15,
								"contract": "contract/votig.sol:Voting",
								"label": "noVotes",
								"offset": 0,
								"slot": "6",
								"type": "t_uint256"
							},
							{
								"astId": 19,
								"contract": "contract/votig.sol:Voting",
								"label": "voteCheck",
								"offset": 0,
								"slot": "7",
								"type": "t_mapping(t_address,t_bool)"
							}
						],
						"numberOfBytes": "256"
					},
					"t_uint256": {
						"encoding": "inplace",
						"label": "uint256",
						"numberOfBytes": "32"
					}
				}
			},
			"userdoc": {
				"kind": "user",
				"methods": {},
				"version": 1
			}
		}
	}
}